:020000040000fa
:080000000002040000000000f2
:020000040000fa
:0400080010050000df
:020000040000fa
:04000c0010050000db
:020000040000fa
:0400100010050000d7
:020000040000fa
:0400140010050000d3
:020000040000fa
:0400180010050000cf
:020000040000fa
:04001c0010050000cb
:020000040000fa
:0400200004050000d3
:020000040000fa
:0400240010050000c3
:020000040000fa
:0400280010050000bf
:020000040000fa
:04002c00fa020000d4
:020000040000fa
:0400300010050000b7
:020000040000fa
:04003400c004000004
:020000040000fa
:0400380010050000af
:020000040000fa
:04003c0010050000ab
:020000040000fa
:0400400010050000a7
:020000040000fa
:0400440010050000a3
:020000040000fa
:04004800100500009f
:020000040000fa
:04004c00100500009b
:020000040000fa
:040050001005000097
:020000040000fa
:04005400a6030000ff
:020000040000fa
:04005800100500008f
:020000040000fa
:04005c00100500008b
:020000040000fa
:040060001005000087
:020000040000fa
:04006400580400003c
:020000040000fa
:04006800100500007f
:020000040000fa
:04006c00100500007b
:020000040000fa
:040070001005000077
:020000040000fa
:040074001005000073
:020000040000fa
:040078006004000020
:020000040000fa
:04007c00100500006b
:020000040000fa
:040080001005000067
:020000040000fa
:040084001005000063
:020000040000fa
:04008800100500005f
:020000040000fa
:04008c00100500005b
:020000040000fa
:040090001005000057
:020000040000fa
:040094000404000060
:020000040000fa
:04009800100500004f
:020000040000fa
:04009c00100500004b
:020000040000fa
:0400a0001005000047
:020000040000fa
:0400a4003a0400001a
:020000040000fa
:0400a800100500003f
:020000040000fa
:0400ac00100500003b
:020000040000fa
:0400b0001005000037
:020000040000fa
:0400b4001005000033
:020000040000fa
:0400b800100500002f
:020000040000fa
:0400bc00100500002b
:020000040000fa
:0400c0001005000027
:020000040000fa
:0400c4001005000023
:020000040000fa
:0400c800100500001f
:020000040000fa
:0400cc00900400009c
:020000040000fa
:0400d0001005000017
:020000040000fa
:0400d4001005000013
:020000040000fa
:0400d800100500000f
:020000040000fa
:0400dc00100500000b
:020000040000fa
:0400e0001005000007
:020000040000fa
:0400e4001005000003
:020000040000fa
:0400e80010050000ff
:020000040000fa
:0400ec00f20300001b
:020000040000fa
:0400f00028040000e0
:020000040000fa
:0400f40010050000f3
:020000040000fa
:0400f80010050000ef
:020000040000fa
:0400fc0010050000eb
:020000040000fa
:0401000010050000e6
:020000040000fa
:0401040010050000e2
:020000040000fa
:0401080010050000de
:020000040000fa
:04010c0010050000da
:020000040000fa
:0401100010050000d6
:020000040000fa
:0401140010050000d2
:020000040000fa
:0401180010050000ce
:020000040000fa
:04011c0010050000ca
:020000040000fa
:0401200010050000c6
:020000040000fa
:0401240010050000c2
:020000040000fa
:0401280010050000be
:020000040000fa
:04012c0010050000ba
:020000040000fa
:0401300010050000b6
:020000040000fa
:0401340010050000b2
:020000040000fa
:0401380010050000ae
:020000040000fa
:04013c0010050000aa
:020000040000fa
:0401400010050000a6
:020000040000fa
:0401440010050000a2
:020000040000fa
:04014800100500009e
:020000040000fa
:04014c00100500009a
:020000040000fa
:040150001005000096
:020000040000fa
:040154001005000092
:020000040000fa
:04015800100500008e
:020000040000fa
:04015c00100500008a
:020000040000fa
:040160001005000086
:020000040000fa
:040164001005000082
:020000040000fa
:04016800100500007e
:020000040000fa
:04016c00100500007a
:020000040000fa
:040170001005000076
:020000040000fa
:040174001005000072
:020000040000fa
:04017800100500006e
:020000040000fa
:04017c00100500006a
:020000040000fa
:040180001005000066
:020000040000fa
:040184001005000062
:020000040000fa
:04018800100500005e
:020000040000fa
:04018c00100500005a
:020000040000fa
:040190001005000056
:020000040000fa
:040194001005000052
:020000040000fa
:04019800100500004e
:020000040000fa
:04019c00100500004a
:020000040000fa
:0401a0001005000046
:020000040000fa
:0401a4001005000042
:020000040000fa
:0401a800100500003e
:020000040000fa
:0401ac00100500003a
:020000040000fa
:0401b0001005000036
:020000040000fa
:0401b4001005000032
:020000040000fa
:0401b800100500002e
:020000040000fa
:0401bc00100500002a
:020000040000fa
:0401c0001005000026
:020000040000fa
:0401c4001005000022
:020000040000fa
:0401c800100500001e
:020000040000fa
:0401cc00100500001a
:020000040000fa
:0401d0001005000016
:020000040000fa
:0401d4001005000012
:020000040000fa
:0401d800100500000e
:020000040000fa
:0401dc00100500000a
:020000040000fa
:0401e0001005000006
:020000040000fa
:0401e4001005000002
:020000040000fa
:0401e80010050000fe
:020000040000fa
:0401ec0010050000fa
:020000040000fa
:0401f00010050000f6
:020000040000fa
:0401f40010050000f2
:020000040000fa
:0401f80010050000ee
:020000040000fa
:0401fc0010050000ea
:020000040000fa
:0402000010050000e5
:020000040000fa
:0402040010050000e1
:020000040000fa
:0402080010050000dd
:020000040000fa
:04020c0010050000d9
:020000040000fa
:0402100010050000d5
:020000040000fa
:0402140010050000d1
:020000040000fa
:0402180010050000cd
:020000040000fa
:04021c0010050000c9
:020000040000fa
:0402200010050000c5
:020000040000fa
:0402240010050000c1
:020000040000fa
:0402280010050000bd
:020000040000fa
:04022c0010050000b9
:020000040000fa
:0402300010050000b5
:020000040000fa
:0402340010050000b1
:020000040000fa
:0402380010050000ad
:020000040000fa
:04023c0010050000a9
:020000040000fa
:0402400010050000a5
:020000040000fa
:0402440010050000a1
:020000040000fa
:04024800100500009d
:020000040000fa
:04024c001005000099
:020000040000fa
:040250001005000095
:020000040000fa
:040254001005000091
:020000040000fa
:04025800100500008d
:020000040000fa
:04025c001005000089
:020000040000fa
:040260001005000085
:020000040000fa
:040264001005000081
:020000040000fa
:04026800100500007d
:020000040000fa
:04026c001005000079
:020000040000fa
:040270001005000075
:020000040000fa
:040274001005000071
:020000040000fa
:04027800100500006d
:020000040000fa
:04027c001005000069
:020000040000fa
:040280001005000065
:020000040000fa
:040284001005000061
:020000040000fa
:04028800100500005d
:020000040000fa
:04028c001005000059
:020000040000fa
:040290001005000055
:020000040000fa
:040294001005000051
:020000040000fa
:04029800100500004d
:020000040000fa
:04029c001005000049
:020000040000fa
:0402a0001005000045
:020000040000fa
:0402a4001005000041
:020000040000fa
:0402a800100500003d
:020000040000fa
:0402ac001005000039
:020000040000fa
:0402b0001005000035
:020000040000fa
:0402b4001005000031
:020000040000fa
:0402b800100500002d
:020000040000fa
:0402bc001005000029
:020000040000fa
:0402c0001005000025
:020000040000fa
:0402c4001005000021
:020000040000fa
:0402c800100500001d
:020000040000fa
:0402cc001005000019
:020000040000fa
:0402d0001005000015
:020000040000fa
:0402d4001005000011
:020000040000fa
:0402d800100500000d
:020000040000fa
:0402dc001005000009
:020000040000fa
:0402e0001005000005
:020000040000fa
:0402e4001005000001
:020000040000fa
:0402e80010050000fd
:020000040000fa
:0402ec0010050000f9
:020000040000fa
:0402f00010050000f5
:020000040000fa
:0402f40010050000f1
:020000040000fa
:0402f80010050000ed
:020000040000fa
:0402fc0010050000e9
:020000040000fa
:0403000010050000e4
:020000040000fa
:0403040010050000e0
:020000040000fa
:0403080010050000dc
:020000040000fa
:04030c0010050000d8
:020000040000fa
:0403100010050000d4
:020000040000fa
:0403140010050000d0
:020000040000fa
:0403180010050000cc
:020000040000fa
:04031c0010050000c8
:020000040000fa
:0403200010050000c4
:020000040000fa
:0403240010050000c0
:020000040000fa
:0403280010050000bc
:020000040000fa
:04032c0010050000b8
:020000040000fa
:0403300010050000b4
:020000040000fa
:0403340010050000b0
:020000040000fa
:10040000efb527000eff27000e0188000000000056
:10041000000020000000e000020032000001200087
:1004200020028800140007007f0107000000e000a0
:1004300003003a0020e820000100200002003700fd
:100440000000200001002000810f70000100320038
:100450000f000700000020000000e0000200320052
:100460000000020000000000c84e02000000000072
:100470000040da000000fe00800220000000e000e2
:1004800002003200002020009001880000000600d9
:10049000a1028800800478000000eb001f003700f4
:1004a000e284440054a0b4009905ba00e2844400f8
:1004b00054a0b4009906ba00e284440054a0b400e9
:1004c0000006eb00476fde00fd07b200ae018800ba
:1004d000636ce10003003a000ad801000000eb0061
:1004e0000e003700606ce10008003a00004deb00a0
:1004f0000a05e800020039003420ec000af0a000f0
:100500008b05e900f9ff3e00040037006168e10057
:10051000010032000086eb000b00070019c7ba008b
:100520001905ba000e04e00003003a000a00e000da
:10053000dbff3a0000000600fe07b200ae028800b2
:100540008a047800f5ff37000cd0a300e20f4d00bd
:100550001c003b0089027800354dba000a05e8000e
:10056000020039003420ec000af0a0008b05e900fd
:100570000f003200254dba000a05e80002003900dc
:100580003420ec000af0a0008b05e90008003200de
:100590000c00e0000600320015cdba000a05e800a4
:1005a000020039003420ec000af0a0008b05e900bd
:1005b0008984e80054a0b4000b00e000e2ff3a0098
:1005c000000006009902ba00055d78008b05e9007d
:1005d000f7ff3200c82ade00055d78008b05e900d0
:1005e000f3ff32000c00e000f1ff320019ddba0029
:1005f000eeff3700809fbe000000fa0000042100db
:10060000300090008000e8000004210031009800d4
:1006100000042100b0009000703e2000808f500048
:100620000800360000042100504090008040e8009f
:100630000004210051409800000421008000eb00dc
:100640003100980000042100d0409000b0c3b300f6
:1006500080cf500008003600000421004040900088
:100660008040e8000004210041409800000421007f
:100670008040eb005140980000042100c0409000f1
:10068000b0c3b30080cf5000080036000004210042
:10069000304090008040e800000421003140980084
:1006a000000421008040eb0041409800000421003c
:1006b00030409000f74f5000080036000004210041
:1006c000204090008040e800000421002140980074
:1006d000000421008040eb0031409800000421001c
:1006e00020409000ff4f5000080036000004210019
:1006f000104090008040e800000421001140980064
:10070000000421008040eb002140980000042100fb
:1007100010409000ec4f500008003600000421000b
:10072000104078008040e800000421000148780073
:100730000004210011c0b300114098000028a90056
:100740000080fa004f00be00004006003600f800ae
:10075000809fbe00829fbe00849fbe00869fbe0019
:100760000200fa0020128000004f78001e4078003e
:10077000a854070060b22700104078006240600073
:100780000004e0000f003a003cd0bf00624060006f
:100790000004e00007003a003ad0bf008080fb0070
:1007a00042b02700810041009e4878000040e800e8
:1007b0003af0b7003ad0bf00f04f500001003a00c5
:1007c0003c30a8000168a9000080fa004f03be0079
:1007d0004f02be004f01be004f00be003600f900c0
:1007e00000400600801f78000200fa0020128000fe
:1007f00000407800004f78000628a9000080fa0029
:100800004f007800004006003600f800809fbe00d0
:10081000829fbe00849fbe00869fbe000200fa0039
:1008200060138000004f78001e407800505207008f
:100830000368a9000080fa004f03be004f02be000b
:100840004f01be004f00be003600f9000040060018
:10085000801f78000200fa006013800000407800da
:10086000004f78000648a9000080fa004f00780089
:10087000004006003600f800809fbe00829fbe0048
:10088000849fbe00869fbe000000fa00f437070078
:1008900003e8a9000080fa004f03be004f02be002b
:1008a0004f01be004f00be003600f90000400600b8
:1008b0000000fa0001e8a9000080fa0000400600ec
:1008c0003600f800809fbe00829fbe00849fbe005d
:1008d000869fbe000000fa000288a90040b22700ef
:1008e00010407800644060000004e0000300320023
:1008f00020d983000020a10020d98b00d735070024
:100900005010a8000080fa004f03be004f02be0046
:100910004f01be004f00be003600f9000040060047
:100920003600f800809fbe00829fbe00849fbe00fc
:10093000869fbe000000fa0040b2270010407800f9
:10094000644060000004e0000300320020d983000e
:100950000020a10020d98b008c550700bf3507006f
:100960000528a9000080fa004f03be004f02be0018
:100970004f01be004f00be003600f90000400600e7
:100980003600f800809fbe00829fbe00849fbe009c
:10099000869fbe000400fa0000000900001feb0063
:1009a000005feb003e00b100a0c1b300004f780033
:1009b000e0ccb3001047980020c0b3002047980057
:1009c000330020000e01780041ccb300b0c1b30069
:1009d0005a42070020d983000020a00020d98b00b4
:1009e0009e350700322ea9000068a9000080fa0099
:1009f0004f03be004f02be004f01be004f00be00bd
:100a00003600f90000400600801f78000000fa0060
:100a1000204680000080fa004f0078000040060069
:100a20000040da000000fe00000005000001be00ea
:100a3000220007000470a70003f0a1006509b100bf
:100a4000160032000d0035006828e1000600350070
:100a5000f0ff2f00f1ff27000300e00013003b0030
:100a600001002800000005000000400081804800cf
:100a70008502e900fcff3a0008003700f88f4200c9
:100a800002003c008000eb00000005008100d10066
:100a90000080d3008502e800fcff3a000300e0007c
:100aa00002003b0060001000e0801800000006001b
:100ab0004f89de008201780005023700c70ade0098
:100ac000f107b200f50fb20008003200e1cf42009a
:100ad000020032000170a00024000500810f7000a8
:100ae000010032000408050044000500810f700079
:100af00002003a00140005008502e90000004000f1
:100b000081c04800fcff3b000170a00024000500ec
:100b100007f82700078361000638e10004003a0067
:100b2000f7072000878361008703710001003a0006
:100b300003f0a200889fbe008a9fbe008c9fbe006b
:100b4000470ade000480a100c71ade000580a1006c
:100b5000070028000785600087856100f70f2000e7
:100b60000720e1009e0032000728e1009c003200cf
:100b7000010678000400e000b4003200f70720000e
:100b8000878060000170a0000500e000c000320016
:100b9000f7072000878161000370a000050652005e
:100ba0000f003a000b50e1000b0032000308e10097
:100bb00002003a000200e1007e0032000204500010
:100bc00083845800040031000001fd008101fd0014
:100bd0008402fd008a05fd006044b8002100370052
:100be0000520e10005003d000001fd008101fd0040
:100bf0008402fd008a05fd00050652007a60e100ce
:100c0000050035000170a1004722dd0084807000de
:100c10008a807000630037006044b800ef0266000d
:100c200007ff2f00070666000500e00006003400fd
:100c3000f08312008714dd000511de00071bdd00c4
:100c4000060171008519de007060e10005003500c5
:100c50000904780082047800030178008001eb0029
:100c6000700656000b50e10003003a0002004000fd
:100c7000838048000400370060041400e0841c00f6
:100c800002005800838058000188a300060032004b
:100c90008100d1000080d3008984d3000884d30070
:100ca0000402e800270037000178a30025003a007d
:100cb0000100e000030032008186cf006986560003
:100cc0000a0037008c0020000000e00004003a0019
:100cd00009007800880478000004eb0070025200dc
:100ce0008086cf000d0646000c06e9007060e1002a
:100cf000060035008000780009007800880478003c
:100d00000004eb0070065600700252000c00e00078
:100d10000c0034008c08dd00f00316000703de0031
:100d2000868070000c00dd00074bde0006007000be
:100d30008c4cdd000743de00868474000c44dd002b
:100d40000c0252006120e1002000350061016000ca
:100d50000700280087816400f7ff2700878364006d
:100d6000070374000300e0000600320082037300f2
:100d7000040032000000e800e08048000188a30081
:100d80000e003a00f70f20000720e1004a003d0066
:100d90000170a1004722dd00810072008a8070008e
:100da0000000be004f06be004f05be004f04be004f
:100db000000006006000b800faff37008100d10093
:100dc0000080d3000402e800eeff37000401780041
:100dd00089017400c20007008a807000f1ff3700ab
:100de00018010700070278000001fd008101fd00e5
:100df0001401070087027800850372000778a300ba
:100e0000040032000001fd008101fd002701070000
:100e1000e4ff3700850362000768a3000800320082
:100e20000b50e10003003200f0ff2f00f1ff27001c
:100e3000dcff37000001fd008101fd00d9ff370014
:100e40000468a300d7ff3200faff3700f8ff27003d
:100e5000888360000b003a000000e00009003a00bf
:100e60008303640082837300020032000200be002c
:100e7000ccff37000b50e100ceff3a000200be006d
:100e8000c8ff370014002000810064003eff3700d7
:100e9000f8ff27008883610004003a000200e000a8
:100ea00002003a008c007800beff370015002000d9
:100eb0008301640039ff370001f82700000020009b
:100ec00081007500b7ff3700038368000700280022
:100ed00007036300470ade000480a100c71ade0092
:100ee0000580a100f70f20000720e100420032003a
:100ef0000728e10040003200889fbe008a9fbe00a4
:100f00008c1f7800f107b200f307b2000400e00084
:100f1000640032000170a0000500e00068003200ab
:100f20000370a00085054200eb07b1000204b80081
:100f30000302b8008484440060854a00020ab800b5
:100f4000848444000a854a00030ab8000405450069
:100f5000040033000804d0008984d2000a85d2003e
:100f60008b05e9006158e1003d00350002102000ca
:100f7000090161000308200089816100f707200052
:100f80008783640008867300c84cde00c853dd0008
:100f9000878474004855de000300e000060032003c
:100fa00082037600040032008904e80060054d00e9
:100fb0000a88a3000c003a00f70f20000758e10050
:100fc00044003d000a70a100c75ddd000a85750080
:100fd0008a007300090078004f0678004f05be00b4
:100fe0004f04be00000006000a05d1008984d3002a
:100ff0008b05e800f0ff3700881f780006047800b2
:1010000090000700070278000001fd008101fd004b
:101010008c00070087027800850372000778a30020
:10102000050032000001fd008101fd009f00070066
:101030004f04780000000600850372000748a300f3
:1010400003003200f0ff2f00f1ff2700f8ff370008
:101050000000200001f8270088807000f4ff3700ae
:10106000880178004848dd00808171004848de0032
:10107000c850dd0001007000c850de000604780092
:101080000b0178001600070088807000d2ff37003f
:101090000500e00005003200170020003a000700bc
:1010a0009dff370081037000f9ff3a008600780049
:1010b0004f0678004f05be004f04be00000005003b
:1010c00083037100f9ff3200270020002e00070083
:1010d00094ff370001f8270086807000f4ff370086
:1010e0000100e00026003200610111007810e100eb
:1010f00023003c006022b8007010e10004003500bd
:1011000080027800010078008000eb00700151003f
:101110000200e0000900340070031100062add001f
:10112000822ade008603dd00878272000200de0074
:10113000860bdd00070070008208de0084817100ec
:10114000f4ff2700048262008481710004002800fb
:10115000848262006102600005f0a60000000600c3
:1011600004827100070032000000e800e0804800bf
:10117000000006000002be006000b800efff37006c
:101180006000b80000000600889fbe000004eb006d
:101190006138e10016003a000100e00008003a0062
:1011a000c800de004800dd00880020000100e000eb
:1011b00003003a00c800de004800dd006804440077
:1011c0008184cf00e9845400060034008908dd00e2
:1011d000f08314008703de00878070000900dd00c3
:1011e00009044400610214004f04be000000060020
:1011f0000300e00008003a00c811de004811dd00dd
:10120000880020000300e00003003a00c811de005f
:101210004811dd00680444008384cf00e984540051
:10122000060034008919dd00f08314008713de0006
:10123000878171000911dd0009044400e1021400f6
:10124000e9ff37002700200001f0a7001700200069
:10125000470bde00f60fb200040032000643e80040
:101260000a0032004702b3000000060001037800c4
:10127000f607b2000603700002003a000703b3004d
:10128000000006008702b30000000600010378009a
:10129000f607b20006037000020032000770a000db
:1012a000000006000760a000000006000478a3000c
:1012b000040032000578a300030032000168a30097
:1012c00001003a000200be000160a000000006001c
:1012d000881f7800030478000300e00007003d0049
:1012e00060001000e080180060011900e081190022
:1012f00002003b0001f02d0003003700040007004e
:1013000008f0a70001f0a0004f04780000000600dc
:10131000889fbe008a9fbe00008270000402710098
:1013200004827100260032000004be000200be00ec
:101330006011b8006b092000950220000182cf00e7
:101340000a0039000541b1000082cf0007003900d2
:101350000541b1000982cf00040039000541b10008
:101360000882cf00010039000541b100054252005a
:10137000120032000a003b008281710061016400aa
:101380008100d1000080d3008984d3000884d30079
:101390008b05e8000442e800f7ff3a000700370039
:1013a0000804440089844c00000048008180480003
:1013b0008b05e9000442e900f9ff3a000300070049
:1013c0004f05be004f04be00000006008100200053
:1013d000618055000b003d000b00200061fe2f00d6
:1013e0000100e1001d003400828171006101640090
:1013f0008904d1000884d3000000e800faff3a0015
:1014000071002000610064000300700002006000b1
:101410000900320061044400e0844c000988a50002
:10142000050032008b05e8006808e10002003a0080
:101430008904d1000884d300f20f20000258e10093
:1014400005003d00c75ddd00f907b2008980750029
:1014500008007800000006000bf827008b007800d9
:1014600000000500889fbe008a9fbe008c9fbe00c2
:101470000004be000400200005f8270085836000fa
:1014800004037800840f5300858f5b0007003a0047
:101490000801be000800be008bfe07000001be0070
:1014a0000800be00a3fd070010003700e00f500049
:1014b000e08f58000f003c008101780003f0a1008c
:1014c00000017800e00f5100e08f59006a003200ff
:1014d00010022000e0da8b000801be000800be0008
:1014e0008bfd07000001be006a0007000004be007b
:1014f00061003700478cde00cf8cde00e00f540027
:10150000e08f5c000f003a006044b8000400370030
:10151000000040008180480061044400e0844c00e9
:101520000400200005082000818162000401780089
:10153000e00f5100e08f5900f5ff32006104140004
:10154000e0841c00f807b1000980b1008101780037
:10155000f307b200000178000200be000170a00095
:101560000808a3000200320000004000818048000b
:101570008984d1000884d3000000400081804800a5
:101580009401200002002000031020006055b800e4
:101590006066b8000c0341008d834900800f530042
:1015a000818f5b0006003c000606410087864900eb
:1015b00006005000878058000a0541008b854900cd
:1015c00000004000818048008301d1000281d300e7
:1015d0000402e900efff3a00e00f5000e08f5800ee
:1015e0001b0032000226240023da20000000200025
:1015f00001f8230046fd07000200200003f8230045
:10160000220007000000e00011003500022624003f
:1016100023da20000000200001f8230045fd070028
:101620000200200003f82300180007000000e0007b
:101630000300340062054500e0854d0004003700da
:101640006000b800610065000005450081854d001f
:10165000c744dd00080020000000200001f0230046
:1016600008044000898448008b85d1000a85d30096
:101670000804450089844d000800be004f06be00e6
:101680004f05be004f04be0000000600f4ff2f000f
:1016900065013700889fbe008a9fbe008c9fbe00f8
:1016a0001b0020000202be0005866800060028001c
:1016b000060666004709de00f20fb2008200320023
:1016c0000243e80080003200c729de00f30fb200b9
:1016d0007d0032000343e8007b003200f107b200d6
:1016e0000170a000f507b2000570a000c708dd007a
:1016f0004903de00868070004700dd00c72add0058
:101700004923de00868272004722dd000305510076
:10171000040350008583580003003100000040009e
:10172000818048000a05e9008c1f78008a9fbe006e
:1017300004005000858058000402420085824a005f
:1017400000004000818048000005eb000004be005e
:101750006033b8000406be000d48e10056003100b9
:10176000050009004dccd8000c01b8000d02b800ee
:101770008481410060824a008283530003045c003c
:1017800084845c0060055d000a00e00025003a00ea
:10179000800578000d40e1004900310088007800a4
:1017a00007007800050009004d88d8000c01b8003a
:1017b0000d02b8008481410060824a00600311007c
:1017c00083835b0004045c00e0845c000900e000ab
:1017d00021003a004f01be000300e0002b00320060
:1017e000e3016000070673008c8171000100320084
:1017f000640070004200de004e5edd000c007000f0
:10180000c258de0001e0a00081000700cf0178008f
:10181000818071004f06be004f05be004f04be0020
:10182000000006008c8343000d044c00e0844c0053
:1018300060054d000000e9000a00e000d4ff32001e
:101840008c8343000d044c00e0844c0060054d0087
:101850000000e900ceff37000c0343008d834b00ee
:1018600060044c00e0844c000000e9000900e00046
:10187000d8ff32000c0343008d834b0060044c0002
:10188000e0844c000000e900d2ff37004200de0097
:101890004e5edd000c007000c258de0001e0a000ca
:1018a000cf0178000300e000daff32006000100092
:1018b000e0801800d7ff3700f0ff2f00aaff3700a5
:1018c000f0ff2f00b9ff37000404be005dfe0700e3
:1018d000870678000004fd008104fd0059fe070022
:1018e000078366000678a300030032000960a700a2
:1018f0000800be002c0037000d78a3000200320063
:101900000800be00280037000778a30026003a0030
:1019100001f0a10009f0a1000668a3000300320055
:10192000f1ff2700f0ff2f00baff37000d68a3007a
:10193000030032000800be008c807000b5ff370045
:101940000768a30007003a000648a300030032001e
:10195000f1ff2700f0ff2f00aeff37000d48a30076
:10196000030032006000b8008c807000a9ff3700cf
:101970000748a3000400320001f8270000002000ff
:101980008c807000a3ff3700740007000004fd0086
:101990008104fd0002057800700007000802be0007
:1019a0008a01780059ff37000160a0001202200070
:1019b0009285880097ff37000100e0001200320096
:1019c0000500e00010003200889fbe008a9fbe0024
:1019d0008c9fbe000006eb0001f8a300030032005c
:1019e00060001000e08018000cf0a00005f8a300d3
:1019f0000300320060021200e0821a000cf0a20024
:101a00008005eb0041ff37006000b80002000500d0
:101a100081017000270032008002eb0001f8a30072
:101a20000300320060001000e08018001500200064
:101a3000f40720000202420020003400f7032000d7
:101a400087036000060420000003630002082000f2
:101a5000000161004700de00c909dd00008071005f
:101a6000c708de000600e0000800320087037100ae
:101a7000060032001000b0000180b0000188a30011
:101a800002003200c108de000402e800f107b200e3
:101a9000f30f20000320e10003003d004722dd009a
:101aa000810072002900370001f827000000eb00d8
:101ab000260037006000b80000000600680212002f
:101ac0007f20e100020034006000b8001f003700f2
:101ad0006011b8007020e10004003500800178003a
:101ae000010078008000eb00700252000400e0006a
:101af00009003400f00312000719dd008419de002c
:101b00000703dd00868171000400de00070bdd00a5
:101b1000060070008408de00f7ff2700838363005f
:101b200087037100060028000303630007003200ea
:101b30000700e00003003a006101600002817300c9
:101b4000020032001000b0000180b0000500a600c5
:101b50000000060001f0a000000006004f0ade00b1
:101b60004709de00f107b200f20fb2000b003200ad
:101b7000f207b1000170a000c708dd00c901de0056
:101b8000838070004700dd000400a600000006000e
:101b900060001000e080180000000600810f700057
:101ba00001003a00000006008182cf000500e0003d
:101bb00010003e008082cf00ee8242007028e100db
:101bc0000400390007003e00800078000000eb00b0
:101bd0000e003700708312008600de000500dd0075
:101be0000a003700708352008600dd000000eb0021
:101bf00006003700e28252008508dd007083120083
:101c00000603de00868070000500dd007507b00069
:101c10000501ea000400a6000000060060001000b4
:101c2000e080180000000600889fbe008a9fbe006a
:101c3000841f7800170007004f0078001100330060
:101c4000f0ff2f00838f6c0006003b000405650049
:101c50000a00a7000800370009f0a60010002000c5
:101c600008003700820f5400838f5c0003003900a6
:101c70001000200001003e000000200009f0a70035
:101c80000000ea004f05be004f04be000000e00067
:101c9000000006000004be0088fb07000003be0031
:101ca0000405be000200be0084fb0700844f7500df
:041cb000000006002a
:020000040000fa
:101cb4000a0f00000f050000140f00000a32000094
:101cc4007d000000003000000000000060e3000020
:101cd4001600000030000000000100003201000086
:101ce4000008000000000000000800008000000060
:101cf4000008000080000000002000000300000035
:020000040000fa
:101d0400b01000000200000080000000b478000061
:101d14004002000080000000f47a00006800000027
:101d24008000000000100000a600000080000000f9
:101d3400b41000000030000082000000ff0000002a
:101d4400000000000000000000000000000000008f
:101d5400000000000000000000000000000000007f
:101d6400000000000000000000000000000000006f
:101d7400000000000000000000000000000000005f
:105d3400000000000000000000000000b44000006b
:105d44000030000082000000ff000000000000009e
:105d5400000000000000000000000000000000003f
:105d6400000000000000000000000000000000002f
:105d7400000000000000000000000000000000001f
:105d8400000000000000000000000000000000000f
:109d44000000000000000000a61000000a0000004f
:109d54008200000001010100010101000101010074
:109d640000000000b4700000000800008000000043
:109d74005c7b00000200000080000000b2100000c4
:0c9d840002000000800000000000000051
:020000040000fa
:109d90002800fa00e60047000f0009008018eb00d9
:109da0000000eb00301798000040eb00004f7800f7
:109db0000000eb00100798000000eb00200798005f
:109dc000a72f07000004210071c1b30001487800eb
:109dd0000004210051c0b30011409800000421008c
:109de000f1c0b300214098000004210081c0b300fd
:109df00031409800000421008040eb004140980071
:109e0000000421008040eb00514098000004210034
:109e10008000eb00310098001030ef001230ef00ae
:109e2000594ea900582ea80001003700000000007c
:109e30000140800000082000008060000000e00079
:109e4000faff320000e8a90006d0bf000040e80099
:109e500006f0b70007d0bf000040e80007f0b700e9
:109e600008d0bf000040e80008f0b70040b227006b
:109e7000104078000044b2000004e00010003200fe
:109e800040b227009040780000c8b30000c06000d6
:109e90000004e00002003200fb0407000800370065
:109ea00050b2270010407800614060000004e000dc
:109eb000020032009503070001003700f20407009a
:109ec00006d0bf00e24f500007003a000ad0bf00a2
:109ed0000040e8000af0b70009d0bf000040e800e9
:109ee00009f0b7000670ef00710021009140780082
:109ef00080ccb30080cf500001003a000770ef0023
:109f000008d0bf00e54f500001003a000870ef0094
:109f100009d0bf00e44f500001003a000970ef0083
:109f20000ad0bf00ea4f50001d003a001ad0bf000f
:109f30000004e0001600320031848000000021009f
:109f4000008060000000e000110032008790a9004e
:109f500080c3b30060479800f0c4b3007047980016
:109f6000b0c4b300004f9800a9d0bf00104f9800b4
:109f700066004700430020000001780041ccb30098
:109f8000b0c1b300ed1c0700a9d0bf009a200700a4
:109f90000a70ef000bd0bf000040e8000bf0b700e4
:109fa0000bd0bf00e64f400019003a001ad0bf00a6
:109fb0000004e00011003a0019d0bf000040e800a2
:109fc00019f0b7001ad0bf000004e0000c003a00fe
:109fd0009101210091407800e0e5280010407800d0
:109fe00080cf5000060039005c00070079000700b0
:109ff00010c0b3001af0b7000100370000000000e5
:10a000000b70ef000cd0bf000040e8000cf0b70070
:10a010000cd0bf00e44f50000e003a0014d0bf0037
:10a020000040e80014f0b7004101210091407800a1
:10a03000a0e528001040780080cf500001003900d2
:10a040001470ef000c70ef000dd0bf000040e8006e
:10a050000df0b700d100210091407800c0c3b300db
:10a0600080cf500022003a0017d0bf000040e80027
:10a0700017f0b7007101210091407800c0e5280079
:10a080001040780080cf50000400390030d98300a0
:10a090000000a00030d98b001770ef0040b22700fd
:10a0a000104078000044b2000004e00005003a00cf
:10a0b00040b2270010407800624060000004e000d9
:10a0c0000a00320018d0bf000040e80018f0b700c6
:10a0d0008101210091407800d0e5280010407800ef
:10a0e00080cf5000010039001870ef000d70ef00b4
:10a0f00000e8a9004eff37000200fa00000f7800c8
:10a100001e007800a1c1b300014878001e00e800dd
:10a11000a1cab300014878001e80e80011c0b30056
:10a12000014878009e0078006380400011c0b300b1
:10a13000014878009e0078006480400081c1b3002f
:10a14000014878009e0078006580400071c0b3002f
:10a15000014878000080fa00000006000000fa00c4
:10a160000080fa00000006000000fa0020d98300f9
:10a170000000a10020d98b0020d983000010a1008d
:10a1800020d98b0020d983000020a10020d98b008a
:10a1900020d983000060a10020d98b0020d9830042
:10a1a0000050a10020d98b0020d983000070a100ad
:10a1b00020d98b0020d983000080a10020d98b00fa
:10a1c00020d983000090a10020d98b000080fa00e4
:10a1d000000006000000fa0040b22700104078009e
:10a1e000624060000004e00007003a00deff070064
:10a1f00020d983000010a00020d98b0030d9830023
:10a200000030a00030d98b000080fa00000006006a
:10a210000400fa0000000900001feb00005feb00e3
:10a220003e00b1000626070050c0b300fe2607001e
:10a23000d1cab300814f500003003a004e260700f8
:10a24000072707000b003700e0ceb300004f78006f
:10a25000e0ceb3001047980010ceb300204798001e
:10a26000330020000e01780041ccb300b0c1b30030
:10a27000321c070030c0b30037330700d1cab30027
:10a28000814f500003003a0030c0b3006333070031
:10a290000b003700e0ceb300004f7800e0ceb300f3
:10a2a0001047980020ceb3002047980033002000cc
:10a2b0000e01780041ccb300b0c1b3001f1c0700f1
:10a2c00040c0b30024330700d1cab300814f50000f
:10a2d00003003a0040c0b300503307000b003700c2
:10a2e000e0ceb300004f7800e0ceb30010479800f6
:10a2f00030ceb30020479800330020000e017800d4
:10a3000041ccb300b0c1b3000c1c0700bf3507003f
:10a31000004f78009e40780000c3b30080cf50000b
:10a3200008003a00b0c0b300004f7800f0c0b3009e
:10a330001047980021c0b3000e007800c335070015
:10a340000b003700e0ceb300004f7800e0ceb30042
:10a350001047980040ceb3002047980033002000fb
:10a360000e01780041ccb300b0c1b300f31b07006d
:10a37000b0cbb300004f7800c0ccb30010479800ba
:10a38000d0cdb30020479800330020000e017800a4
:10a3900041ccb300b0c1b300e81b070020d9830053
:10a3a0000060a00020d98b000080fa0000000600a9
:10a3b0000400fa0000000900001feb00005feb0042
:10a3c0003e00b100b22607001626070030c0b300d9
:10a3d0003133070040c0b3002f330700b0c0b300d3
:10a3e000004f78000040eb001047980021c0b300f8
:10a3f0000e007800953507000080fa000000060086
:10a400000800fa001007980021079800624798009a
:10a41000734798000040eb00004f78000d003700b4
:10a420006e4090000080fb00ae0090000080400075
:10a430009e80fb001e019000810041009140780049
:10a44000014878006e4090000040e80060479800a6
:10a450001e4fe8007e4090009e40780080cf500064
:10a46000efff39000080fa00000006000400fa0047
:10a47000000f7800214798000080fa0000000600d5
:10a480000a00fa000000eb00000f78000000eb006b
:10a4900010079800e5004700030009008058eb0012
:10a4a0000040eb004047980038d0bf000080fb0020
:10a4b000e20f50005a003200e20f500005003c004d
:10a4c0000000e00058003200e10f500006003200aa
:10a4d00050003700e30f500028003200e40f500016
:10a4e0004a0032004b0037004e4090000004e0006c
:10a4f00010003a005e4090000080fb006f0060009a
:10a50000a0828800a0828000c800dd006e4090001c
:10a510000080fb0001007000a0828800a082800003
:10a520004300dd00000f78001e0078006400070083
:10a530000e00370030c3b30050479800e0cdb300a1
:10a5400060479800d0cab300704798000040eb0005
:10a55000004f98006500470043002000000178008c
:10a5600041ccb300b0c1b300741b070038d0bf00aa
:10a570000040e80038f0b7002c0037004e40900053
:10a580000004e00010003a005e4090000080fb00f4
:10a590006f006000b0828800b0828000c800dd00db
:10a5a0006e4090000080fb0001007000b0828800c7
:10a5b000b08280004300dd00100798001e0090006c
:10a5c0001c0007000e00370000c5b300504798007c
:10a5d000e0cdb30060479800d0cab3007047980040
:10a5e0000040eb00004f980065004700430020004a
:10a5f0000001780041ccb300b0c1b3004f1b07008d
:10a6000038d0bf000040e80038f0b7003870ef00e5
:10a61000060037003870ef0000000000030037002c
:10a620000000000001003700000000000080fa0078
:10a63000000006000800fa00300798000100090039
:10a64000001feb00005feb005e00b100e1828000c4
:10a650003e00900000804000e082880058d0bf009b
:10a660000040e80058f0b70058d0bf00e34f50005a
:10a67000110036005870ef00e08280004200de00da
:10a68000f08288005c30ef00f1828000b0d42100bd
:10a69000808f500008003e00f1828000c00c210035
:10a6a000808f500004003600f18280003096210037
:10a6b000808f5000000036000080fa000000060085
:10a6c0000600fa00200798006000b800008fbe0066
:10a6d000d18280002e00900000804000d08288004f
:10a6e00059d0bf000040e80059f0b70059d0bf0072
:10a6f000e34f5000050036005970ef00d082800013
:10a700004200de00008388005a30ef000080fa002b
:10a71000000006000800fa00200798006147980032
:10a7200036d0bf000004e00042003a0040af2700ee
:10a7300071ccb3000148780000042100a0409000d3
:10a7400050af27000148780000042100b04090007d
:10a7500060af27000148780000042100c04090004d
:10a7600070af27000148780000042100d04090001d
:10a7700080af2700014878000004210030009000dd
:10a780004800de008040780090af27000148780044
:10a79000000421003000900080407800a0af270026
:10a7a00001487800308380004800de008040780057
:10a7b000b0af2700014878003083800080407800e7
:10a7c000c0af2700014878002e009000904078002c
:10a7d000d0af2700014878002e0090000000e8006c
:10a7e00090407800e0af2700014878002e009000ec
:10a7f0000080e80090407800f0af27000148780022
:10a800002e009000630040009040780000b02700c8
:10a81000014878002e0090006400400090407800cd
:10a8200010b027000148780030c0b30036f0b70000
:10a830005a00370036d0bf00e14f50002a003a00de
:10a8400040af270081ccb3000148780030838000fe
:10a850004800de008040780050af270001487800b3
:10a86000308380008040780060af27000148780086
:10a870002e0090009040780070af270001487800cb
:10a880002e0090000000e8009040780080af270084
:10a89000014878002e0090000080e8009040780089
:10a8a00090af2700014878002e0090006300400020
:10a8b00090407800a0af2700014878002e0090005b
:10a8c000640040009040780000cfb30080c060007a
:10a8d000b0af27000148780036d0bf000040e80044
:10a8e00036f0b7002d00370036d0bf00e24f5000e1
:10a8f0002a003a00b0af2700904078002e00900068
:10a9000064004000104078000080fb004400de003e
:10a910000040780080c07000b0af27000148780088
:10a920002e00900090407800c0af270001487800ca
:10a930002e0090000000e80090407800d0af270083
:10a94000014878002e0090000080e80090407800d8
:10a95000e0af2700014878002e009000630040001f
:10a9600090407800f0af27000148780030838000e5
:10a970004800de008040780000b0270001487800e1
:10a98000308380008040780010b0270001487800b4
:10a9900036d0bf000040e80036f0b70036d0bf0028
:10a9a000e34f500066003a000001eb00e1c0b30045
:10a9b00040af270024330700100798001e009000c6
:10a9c0004800de008040780020b027000148780071
:10a9d0001e0090008040780030b0270001487800c9
:10a9e00050b2270010407800644060000004e0008e
:10a9f00027003a000000eb00000f78000d00370040
:10aa0000f080800041af27009e8040001141780017
:10aa1000410b210081004000824878000000e800de
:10aa2000f0808800908180000000e800908188001c
:10aa30001e0fe8001e007800ef0f5000f0ff3600f8
:10aa40009181800070738400808f50000d00390068
:10aa500028d0bf000040e80028f0b70028d0bf0091
:10aa60008080fb0060738400808f500002003900fa
:10aa70001e30ef002870ef003230ef003670ef002c
:10aa80002f00370010c0b30036f0b7002c0037009d
:10aa900050b2270010407800684060000004e000d9
:10aaa00027003a000000eb00000f78000d0037008f
:10aab0000081800041af27009e8040001141780056
:10aac000410b240081004000824878000000e8002b
:10aad00000818800a08180000000e800a08188003b
:10aae0001e0fe8001e007800ef0f5000f0ff360048
:10aaf000a181800070738400808f50000e003900a7
:10ab000029d0bf000040e80029f0b70029d0bf00dd
:10ab10008080fb0060738400808f50000300390048
:10ab200020d9830000b0a00020d98b003430ef0082
:10ab30003670ef000200370010c0b30036f0b700e7
:10ab40000080fa00000006002200fa00e100470041
:10ab50001f0009008058eb0050b227001040780019
:10ab6000624060000004e0001200320050b2270092
:10ab70009040780000c8b30000c060000004e0000e
:10ab80000c003a0020d9830000f0a00020d98b00ef
:10ab900020d9830000a0a00020d98b0020d98300f9
:10aba00000b0a10020d98b002230ef002430ef004c
:10abb0002030ef0050b22700104078006440600061
:10abc0000004e000200032000040eb00004f78005d
:10abd0000a0037009e80fb0010818000420b21009c
:10abe00002014000124178008100e80002f778007d
:10abf0000000e800108188001e4fe8001e40780029
:10ac0000ff4f5000f3ff3600a6d0bf008e00e800d3
:10ac100002c2b300241b070011818000207384004e
:10ac2000808f50003300390020d9830000a0a1009c
:10ac300020d98b003230ef002870ef002230ef0077
:10ac40001e30ef002b00370050b227001040780074
:10ac5000684060000004e000260032000040eb0085
:10ac6000004f78000a0037009e80fb0020818000a2
:10ac7000420b240002014000124178008100e800ec
:10ac800002f778000000e800208188001e4fe800ed
:10ac90001e407800ff4f5000f3ff3600a6d0bf00e3
:10aca0008e00e80002c2b300ff1a07002181800075
:10acb00020738400808f50000e00390020d983005b
:10acc0000090a10020d98b0020d9830000f0a100c2
:10acd00020d98b002030ef002230ef002430ef002d
:10ace0002970ef003430ef0020d9830000c0a000ad
:10acf00020d98b000080fa00000006000200fa0054
:10ad0000000f78000080fa00000006001800fa002a
:10ad10000040eb0010479800e600470007000900dc
:10ad20008018eb000040eb00605798000000eb003b
:10ad3000100798000000eb002007980048d0bf00e3
:10ad40000080fb00e10f500072003200e10f500064
:10ad500003003c000000e000060032003d01370027
:10ad6000e20f5000c4003200e30f50001101320026
:10ad70003801370049d0bf000080fb00e10f5000d0
:10ad80000e003200e10f500003003c000000e00024
:10ad90000600320054003700e20f50001600320067
:10ada000e30f50002d0032004f00370060c0b300a9
:10adb000dd310700308388004b003700e600470094
:10adc0007600470063c0b3000101780011c0b300f2
:10add0007024070066004700d32407006600470080
:10ade00071b527003624070051c0b30070b52700a5
:10adf00048fe07003c003700d0c0b3006057980001
:10ae0000e600470076004700b4c0b3008101780037
:10ae100012c0b3008000780030c0b300ba30070021
:10ae20000040eb00004f7800080037001e80fb0058
:10ae30009e80fb00e6804000eec07800e2b2270072
:10ae400000004100014878001e4fe8001e407800d5
:10ae5000ea4f5000f5ff36002300370038d0bf001e
:10ae60000004e00008003a0011c0b30070c0b30055
:10ae7000ec2f0700a082880038d0bf000040e80017
:10ae800038f0b700180037008103210091407800a6
:10ae9000c0c3b30080cf500008003a008040eb00f0
:10aea00070c0b300df2f0700b082880038d0bf0029
:10aeb0000040e80038f0b7000b00370038d0bf0082
:10aec0000040e80038f0b70081032100914078008d
:10aed00070c7b30080cf5000020036003870ef001a
:10aee000010037000000000049d0bf000040e8002a
:10aef00049f0b70049d0bf00ea4f5000d9003600f2
:10af00004970ef0048d0bf000040e80048f0b700ab
:10af1000db00370049d0bf000080fb00e10f50008c
:10af20000e003200e10f500003003c000000e00082
:10af30000600320045003700e20f500018003200d2
:10af4000e30f50002f0032004000370060c0b30014
:10af500075310700308388003c00370010c1b30012
:10af600060579800e60047007600470063c0b300d2
:10af70000101780011c0b3000624070066004700f5
:10af8000692407006600470071b52700cc2307003d
:10af900051c0b30070b52700defd07002b0037005d
:10afa000d0c0b30060579800e60047007600470025
:10afb000b4c0b3008101780012c0b30080007800f3
:10afc00040c0b300503007000040eb00004f780055
:10afd000080037001e80fb009e80fb00e6804000da
:10afe000eec0780092b327000000410001487800cd
:10aff0001e4fe8001e407800ea4f5000f5ff360073
:10b00000120037006600470061c0b3009e3207009f
:10b010000040eb00004f7800080037001e80fb0066
:10b020009e80fb00e6804000eec0780072b22700f0
:10b0300000004100014878001e4fe8001e407800e3
:10b04000e54f5000f5ff36000000000049d0bf007a
:10b050000040e80049f0b70049d0bf00ea4f500077
:10b06000820036004970ef0048d0bf000040e80081
:10b0700048f0b7008200370049d0bf000080fb00d5
:10b08000e10f500009003200e20f500016003200bc
:10b090000000e0003b003a003d8ea80060c0b30015
:10b0a00021310700308388003600370010c1b3001b
:10b0b00060579800e60047007600470063c0b30081
:10b0c0000101780011c0b300b223070066004700f9
:10b0d00071b527007a23070051c0b30070b527006f
:10b0e0008cfd07002700370050b227001040780081
:10b0f000624060000004e0000900320050b2270006
:10b1000010407800704060000004e00004003a0045
:10b110008dfe0700f0c0b30049f0b70019003700fa
:10b120002d09070050b227001040780070406000e1
:10b130000004e00010003200508180006181800036
:10b1400061004000e08048005081880061818800f3
:10b1500052818000638180004073840051738400b9
:10b16000800f5100818f5900050039002a30ef000f
:10b170002c30ef0003003700000000000100370012
:10b180000000000049d0bf000040e80049f0b700cf
:10b1900049d0bf00e64f5000360036003d8ea90072
:10b1a0004970ef0048d0bf000040e80048f0b70009
:10b1b0003300370049d0bf000080fb00e10f500092
:10b1c00008003200e20f5000170032000000e000db
:10b1d00017003a0060c0b300d33007003083880006
:10b1e0001300370010c1b30060579800e600470015
:10b1f0007600470063c0b3000101780011c0b300be
:10b200006423070066004700c72307006600470065
:10b2100071b527002a23070051c0b30070b527007d
:10b220003cfd0700020037001f030700000000007c
:10b2300049d0bf000040e80049f0b70049d0bf0046
:10b24000ee4f50000d0036004970ef004870ef00df
:10b250000b0037004970ef004870ef00000000005d
:10b260000700370000000000050037000000000064
:10b27000030037000000000001003700000000005c
:10b280000080fa00000006001a00fa000040eb00ff
:10b2900010479800e8004700070009008018eb00fd
:10b2a0000040eb00005f98000000eb0010079800e2
:10b2b0000000eb002007980048d0bf000080fb0092
:10b2c000e30f500029013200e30f500007003c005b
:10b2d000e10f500050003200e10f5000c2003c006e
:10b2e0000000e0000a003200db023700e50f5000ea
:10b2f000da013200e50f500060013500e60f500022
:10b300001d023200e70f500083023200d2023700e4
:10b3100049d0bf000080fb000000e00003003200c5
:10b32000e10f50001f003200300037001e40900037
:10b330000004e0002a003a000e4890000080fb0064
:10b340006f006000300798003e009000c800dd00ec
:10b350001e4890000080fb000100700030838800d0
:10b360002e4890000080fb006f00600030079800be
:10b370003e009000c800dd003e4890000080fb00c9
:10b380000100700030079800be009000c05d2000f2
:10b39000808f500014003600be009000518388005a
:10b3a00012003700e80047007800470063c0b30090
:10b3b0000101780011c0b300f622070068004700c1
:10b3c000592307006800470071b52700bc22070019
:10b3d00051c0b30070b52700cefc07000300370052
:10b3e00000000000010037000000000049d0bf004d
:10b3f0000040e80049f0b70049d0bf00ea4f5000d4
:10b40000980236004970ef0048d0bf000040e800c5
:10b4100048f0b700a202370049d0bf000080fb000f
:10b42000e10f500028003200e10f500003003c0003
:10b430000000e0000600320060003700e20f50001c
:10b4400032003200e30f5000490032005b00370049
:10b450001e4090000004e00055003a000e489000a5
:10b460000080fb006f006000300798003e009000f5
:10b47000c800dd001e4890000080fb000100700045
:10b48000308388002e4890000080fb006f00600031
:10b49000300798003e009000c800dd003e48900054
:10b4a0000080fb000100700030079800be00900093
:10b4b000c05d2000808f50003f003600be0090002d
:10b4c000518388003d00370010c1b300005f980031
:10b4d000e80047007800470063c0b300010178002e
:10b4e00011c0b300ab220700680047000e2307001d
:10b4f0006800470071b527007122070051c0b300f2
:10b5000070b5270083fc07002c003700d0c0b300c3
:10b51000005f9800e800470078004700b4c0b3001f
:10b520008101780012c0b3008000780030c0b30001
:10b53000f52e07000040eb00004f780008003700b0
:10b540001e80fb009e80fb00e8804000eec078007b
:10b55000e2b2270000004100014878001e4fe800d9
:10b560001e407800ea4f5000f5ff36001300370008
:10b570006800470061c0b300433107000040eb00a2
:10b58000004f7800060037001e80fb006800400076
:10b59000ee407800b0b22700014878001e4fe80066
:10b5a0001e407800e54f5000f7ff360003003700db
:10b5b00000000000010037000000000049d0bf007b
:10b5c0000040e80049f0b70049d0bf00e34f500009
:10b5d000260236004970ef0048d0bf000040e80066
:10b5e00048f0b7002e02370049d0bf000080fb00b2
:10b5f000e10f500022003200e30f50002f00320014
:10b600000000e0004e003a001e4090000004e00000
:10b6100048003a000e4890000080fb006f00600078
:10b62000300798003e009000c800dd001e489000e2
:10b630000080fb0001007000308388002e489000dd
:10b640000080fb006f006000300798003e00900013
:10b65000c800dd003e4890000080fb000100700043
:10b6600030079800be009000c05d2000808f500021
:10b6700032003600be009000518388003000370051
:10b6800010c1b300005f9800e80047007800470051
:10b6900063c0b3000101780011c0b3003d22070070
:10b6a0006800470071b527000522070051c0b300ac
:10b6b00070b5270017fc07002100370050b22700a3
:10b6c00010407800624060000004e0000e0032008c
:10b6d0001cd0bf000040e8001cf0b700c1012100f1
:10b6e0009140780000e628001040780080cf50009c
:10b6f000010036001c70ef0013fd0700f0c0b3001e
:10b7000049f0b7000e0037001cd0bf000040e80031
:10b710001cf0b700c10121009140780010e628001c
:10b720001040780080cf5000050036001c70ef00fc
:10b730000300370000000000010037000000000097
:10b7400049d0bf000040e80049f0b70049d0bf0031
:10b75000ea4f5000c70136004970ef0048d0bf00e3
:10b760000040e80048f0b700cd01370049d0bf00e5
:10b770000080fb000000e00003003200e10f5000f9
:10b780001f003200320037001e4090000004e0002d
:10b790002c003a000e4890000080fb006f00600013
:10b7a000300798003e009000c800dd001e48900061
:10b7b0000080fb0001007000308388002e4890005c
:10b7c0000080fb006f006000300798003e00900092
:10b7d000c800dd003e4890000080fb0001007000c2
:10b7e00030079800be009000c05d2000808f5000a0
:10b7f00016003600be009000518388001400370008
:10b8000010c1b300005f9800e800470078004700cf
:10b8100063c0b3000101780011c0b300dd2107004f
:10b8200068004700402207006800470071b5270004
:10b83000a321070051c0b30070b52700b5fb070076
:10b840000300370000000000010037000000000086
:10b8500049d0bf000040e80049f0b70049d0bf0020
:10b86000ea4f5000850136004970ef0048d0bf0014
:10b870000040e80048f0b7008901370049d0bf0018
:10b880000080fb00e10f500022003200e20f500068
:10b89000310032000000e00065003a001e409000d8
:10b8a0000004e0005f003a000e4890000080fb00ba
:10b8b0006f006000300798003e009000c800dd0077
:10b8c0001e4890000080fb0001007000308388005b
:10b8d0002e4890000080fb006f0060003007980049
:10b8e0003e009000c800dd003e4890000080fb0054
:10b8f0000100700030079800be009000c05d20007d
:10b90000808f500049003600be00900051838800af
:10b910004700370010c1b300005f9800e8004700ff
:10b920007800470063c0b3000101780011c0b30084
:10b930009821070068004700fb21070068004700c6
:10b9400071b527005e21070051c0b30070b5270014
:10b9500070fb07003600370080c0b300005f98001e
:10b960001e4090000004e00010003a000040eb0090
:10b97000004f7800090037001e80fb000080e800bf
:10b980009e80fb00e8804000eec0780092b3270064
:10b9900000004100014878001e4fe8001e4078007a
:10b9a000e84f5000f4ff3600210037000040eb0064
:10b9b000004f78000400370090b3270011c1b30096
:10b9c000014878001e4fe8001e407800e84f500004
:10b9d000f9ff36000ed0bf000004a0000ef0b70043
:10b9e000e0ceb300004f980090c0b300104f980015
:10b9f00068004700230020000001780041ccb3001c
:10ba0000b0c1b3004d160700808080009180800097
:10ba100061004000e08048008080880091808800bc
:10ba200003003700000000000100370000000000a4
:10ba300049d0bf000040e80049f0b70049d0bf003e
:10ba4000e34f50000f0136004970ef0048d0bf00af
:10ba50000040e80048f0b7001101370049d0bf00ae
:10ba60000080fb00e10f500022003200e20f500086
:10ba7000310032000000e00034003a001e40900027
:10ba80000004e0002e003a000e4890000080fb0009
:10ba90006f006000300798003e009000c800dd0095
:10baa0001e4890000080fb00010070003083880079
:10bab0002e4890000080fb006f0060003007980067
:10bac0003e009000c800dd003e4890000080fb0072
:10bad0000100700030079800be009000c05d20009b
:10bae000808f500018003600be00900051838800ff
:10baf0001600370010c1b300005f9800e80047004f
:10bb00007800470063c0b3000101780011c0b300a2
:10bb100020210700680047008321070068004700d4
:10bb200071b52700e620070051c0b30070b52700ab
:10bb3000f8fa070005003700a706070003003700e2
:10bb400000000000010037000000000049d0bf00e5
:10bb50000040e80049f0b70049d0bf00e34f500073
:10bb6000ca0036004970ef0048d0bf000040e8002e
:10bb700048f0b700ca00370049d0bf000080fb0082
:10bb8000e10f500022003200e30f5000310032007c
:10bb90000000e00055003a001e4090000004e00064
:10bba0004f003a000e4890000080fb006f006000dc
:10bbb000300798003e009000c800dd001e4890004d
:10bbc0000080fb0001007000308388002e48900048
:10bbd0000080fb006f006000300798003e0090007e
:10bbe000c800dd003e4890000080fb0001007000ae
:10bbf00030079800be009000c05d2000808f50008c
:10bc000039003600be0090005183880037003700ad
:10bc100010c1b300005f9800e800470078004700bb
:10bc200063c0b3000101780011c0b300d920070040
:10bc3000680047003c2107006800470071b52700f5
:10bc40009f20070051c0b30070b52700b1fa07006c
:10bc50002600370050b22700104078006240600094
:10bc60000004e0000900320050b2270010407800c4
:10bc7000704060000004e00004003a00b2fb0700de
:10bc8000f0c0b30049f0b7001800370050b22700e9
:10bc900010407800704060000004e00013003200a3
:10bca000508180006181800061004000e080480098
:10bcb000508188006181880052818000638180000a
:10bcc0004073840051738400800f5100818f5900ac
:10bcd000060039002a30ef002c30ef000300370057
:10bce00000000000010037000000000049d0bf0044
:10bcf0000040e80049f0b70049d0bf00ea4f5000cb
:10bd0000640036004970ef0048d0bf000040e800f2
:10bd100048f0b7006200370049d0bf000080fb0048
:10bd2000e10f50002e003200e20f50003d003200c3
:10bd30000000e0003f003a001e4090000004e000d8
:10bd40001b003a000e4890000080fb006f0060006e
:10bd5000300798003e009000c800dd001e489000ab
:10bd60000080fb0001007000308388002e489000a6
:10bd70000080fb006f006000300798003e009000dc
:10bd8000c800dd003e4890000080fb00010070000c
:10bd900030079800be009000c05d2000808f5000ea
:10bda00023003600be009000518388002100370038
:10bdb000409c2000308388000ed0bf000024a000eb
:10bdc0000ef0b7008080800091808000610040000c
:10bdd000e08048008080880091808800150037004e
:10bde00010c1b300005f9800e800470078004700ea
:10bdf00063c0b3000101780011c0b30065200700e3
:10be000068004700c82007006800470071b5270098
:10be10002b20070051c0b30070b527003dfa070082
:10be200004003700200007000e70ef00010037000b
:10be30000000000049d0bf000040e80049f0b70012
:10be400049d0bf00e24f5000140036004970ef00a7
:10be50004870ef00120037004870ef00000000004b
:10be60000f003700000000000d0037000000000048
:10be70000b00370000000000090037000000000040
:10be80000700370000000000050037000000000038
:10be90000300370000000000010037000000000030
:10bea0000080fa00000006002200fa00e2004700cd
:10beb000070009008018eb00f200470007000900a6
:10bec0008018eb0040b227009040780000c8b30013
:10bed00000c060000004e0004b01320039d0bf0018
:10bee0000004e00072003a0040cab3002047980006
:10bef0000004210010407800304798000004210021
:10bf0000104090004047980000042100204090001d
:10bf1000504798000004210030409000604798008e
:10bf20000004210040409000704798000004210068
:10bf300050409000004f9800000421003000900015
:10bf40004800de0000407800104f980000042100f7
:10bf50003000900000407800204f980070b5270016
:10bf600010407800304f980080b5270010407800ce
:10bf7000404f980090b5270010407800504f98002f
:10bf8000a0b5270010407800604f9800b0b527009a
:10bf900010407800704f98000e80e8000001eb0020
:10bfa000e1c0b300a82d0700000f78001e00780044
:10bfb0004800de0000407800005798001e0078001e
:10bfc0000040780010579800408380004800de0051
:10bfd000004078002057980040838000004078009f
:10bfe00030579800e0b22700104078004057980082
:10bff000f0b227001040780050579800a0828000cf
:10c000004800de000040780060579800a082800061
:10c0100000407800705798000040eb00005f9800e7
:10c020000040eb00105f9800508380004800de0065
:10c0300000407800205f9800508380000040780026
:10c04000305f9800308380004800de0000407800b8
:10c05000405f98003083800000407800505f980077
:10c06000b08280004800de0000407800605f9800e9
:10c07000b082800000407800705f98007200470036
:10c080000001eb00e1c0b3006f2d0700000f780046
:10c090001e0078004800de0000407800006798002d
:10c0a0001e0078000040780010679800c900370033
:10c0b00030cab300204798000004210030009000ef
:10c0c0004800de000040780030479800000421005e
:10c0d00030009000004078004047980000b32700ef
:10c0e000104078005047980010b3270010407800a7
:10c0f0006047980020b32700104078008040780007
:10c1000000cfb30080c0600030b32700104078003b
:10c110000080fb004400de000040780000c070009a
:10c120007047980030b32700104078000080fb0073
:10c130004400dd008040780040b3270010407800c4
:10c140000080fb004400de000040780000c070006a
:10c15000004f980040b32700104078000080fb009b
:10c160004400dd008040780050b327001040780084
:10c170000080fb004400de000040780000c070003a
:10c18000104f980060b3270010407800204f9800af
:10c1900070b3270010407800304f980080b327001c
:10c1a000104078008040780000cfb30080c060006d
:10c1b000b0b32700104078000080fb004400de0090
:10c1c0000040780000c07000404f9800b0b32700d6
:10c1d000104078000080fb004400dd0080407800c3
:10c1e000c0b32700104078000080fb004400de0050
:10c1f0000040780000c07000504f9800c0b3270086
:10c20000104078000080fb004400dd008040780092
:10c21000d0b32700104078000080fb004400de000f
:10c220000040780000c07000604f9800e0b3270025
:10c2300010407800704f98000e80e8000001eb007d
:10c24000e1c0b300002d0700000f78001e00780049
:10c250004800de0000407800005798001e0078007b
:10c260000040780010579800f0b327001040780085
:10c270002057980000b427001040780080407800d4
:10c2800000cfb30080c060003283800000f0200047
:10c29000000061004880de000040780000c07000af
:10c2a0003057980030838000004078004057980055
:10c2b00070b52700104078005057980080b52700cf
:10c2c000104078006057980090b527001040780023
:10c2d00070579800a0b5270010407800005f9800c4
:10c2e000b0b52700104078008040780000cfb30040
:10c2f00080c0600010b42700104078000080fb0070
:10c300004400de000040780000c07000105f98001c
:10c3100010b42700104078000080fb004400dd00ce
:10c320008040780020b42700104078000080fb0097
:10c330004400de000040780000c07000205f9800dc
:10c3400020b42700104078000080fb004400dd008e
:10c350008040780030b42700104078000080fb0057
:10c360004400de000040780000c07000305f98009c
:10c37000508380004800de0000407800405f980055
:10c380005083800000407800505f9800b0b22700d2
:10c3900010407800605f9800c0b22700104078001d
:10c3a000705f9800720047000001eb00e1c0b3002d
:10c3b000a52c0700000f78001e0078004800de0062
:10c3c00000407800006798001e0078000040780068
:10c3d0001067980039d0bf000040e80039f0b7007e
:10c3e0009103210091407800c0c7b30080cf500076
:10c3f000010036003970ef00f20047000e80e800bf
:10c400008e0107008b01370050b2270010407800e2
:10c41000614060000004e0008601320039d0bf00b6
:10c420000004e0008c003a0010ccb30020479800d4
:10c4300000042100104078003047980000042100db
:10c4400010409000404798000004210020409000d8
:10c450005047980000042100304090006047980049
:10c460000004210040409000704798000004210023
:10c4700050409000004f98000004210030009000d0
:10c480004800de0000407800104f980000042100b2
:10c490003000900000407800204f980070b52700d1
:10c4a00010407800304f980080b527001040780089
:10c4b000404f980090b5270010407800504f9800ea
:10c4c000a0b5270010407800604f9800b0b5270055
:10c4d00010407800704f98000e80e8000001eb00db
:10c4e000e1c0b300582c0700000f78001e00780050
:10c4f0004800de0000407800005798001e007800d9
:10c500000040780010579800e0b2270010407800f3
:10c510000080fb004400dd0080407800f0b227007e
:10c52000104078000080fb004400de0000407800ee
:10c5300000c0700020579800e0b22700104078003b
:10c540000080fb004400dd008040780090b32700ad
:10c55000104078000080fb004400de0000407800be
:10c5600000c0700030579800a0b32700104078003a
:10c570004057980070b2270010407800505798003c
:10c5800080b22700104078006057980090b22700d2
:10c590001040780070579800a0b227001040780033
:10c5a000005f9800b0b2270010407800105f98003c
:10c5b000c0b2270010407800205f980030838000d0
:10c5c0004800de0000407800305f98003083800033
:10c5d00000407800405f9800a182800000ff2000aa
:10c5e000008060004400de0000407800505f98004a
:10c5f000a082800000407800c400dd00b28280008c
:10c6000000f02000000061004800de0000407800db
:10c6100000c07000605f9800b08280000040780029
:10c62000705f9800720047000001eb00e1c0b300aa
:10c63000052c0700000f78001e0078004800de007f
:10c6400000407800006798001e00780000407800e5
:10c6500010679800ed00370020cdb3002047980008
:10c6600000042100b000900000ff20000080600066
:10c670004400de00004078003047980000042100ac
:10c680003000900000407800c400dd0000b32700b7
:10c69000104078000080fb004400de00004078007d
:10c6a00000c070004047980000b327001040780099
:10c6b0000080fb004400dd008040780010b32700bc
:10c6c000104078000080fb004400de00004078004d
:10c6d00000c070005047980010b327001040780049
:10c6e0000080fb004400dd008040780020b327007c
:10c6f000104078000080fb004400de00004078001d
:10c7000000c070006047980030b3270010407800e8
:10c710007047980040b3270010407800004f980001
:10c7200050b32700104078008040780000cfb3005d
:10c7300080c0600060b32700104078000080fb00dc
:10c740004400de000040780000c07000104f9800e8
:10c7500060b32700104078000080fb004400dd003b
:10c760008040780070b32700104078000080fb0004
:10c770004400de000040780000c07000204f9800a8
:10c7800070b32700104078008040780000cfb300dd
:10c7900080c0600080b32700104078000080fb005c
:10c7a0004400de000040780000c07000304f980068
:10c7b000b0b3270010407800404f9800c0b3270066
:10c7c00010407800504f9800d0b3270010407800f8
:10c7d0008040780000cfb30080c06000e0b3270045
:10c7e000104078000080fb004400de00004078002c
:10c7f00000c07000604f9800e0b327001040780040
:10c800000080fb004400dd0080407800f0b327008a
:10c81000104078000080fb004400de0000407800fb
:10c8200000c07000704f98000e80e8000001eb001f
:10c83000e1c0b300842b0700000f78001e007800d1
:10c840004800de0000407800005798001e00780085
:10c850000040780010579800f0b32700104078008f
:10c860000080fb004400dd0080407800d0b327004a
:10c87000104078000080fb004400de00004078009b
:10c8800000c070002057980010b4270010407800b6
:10c890003057980020b42700104078004057980087
:10c8a00030b42700104078008040780000cfb300fb
:10c8b00080c0600070b52700104078000080fb0049
:10c8c0004400de000040780000c07000505798001f
:10c8d00070b52700104078000080fb004400dd00a8
:10c8e0008040780080b52700104078000080fb0071
:10c8f0004400de000040780000c0700060579800df
:10c9000080b52700104078000080fb004400dd0067
:10c910008040780090b52700104078000080fb0030
:10c920004400de000040780000c07000705798009e
:10c9300090b52700104078000080fb004400dd0027
:10c9400080407800a0b52700104078000080fb00f0
:10c950004400de000040780000c07000005f9800d6
:10c96000a0b52700104078000080fb004400dd00e7
:10c9700080407800b0b52700104078000080fb00b0
:10c980004400de000040780000c07000105f980096
:10c99000308380004800de0000407800205f98006f
:10c9a0003083800000407800305f980070b227002c
:10c9b00010407800405f980080b227001040780057
:10c9c000505f980090b2270010407800605f980098
:10c9d000a0b2270010407800705f980072004700f6
:10c9e0000001eb00e1c0b300172b0700000f780037
:10c9f0001e0078004800de000040780000679800c4
:10ca00001e007800004078001067980039d0bf0001
:10ca10000040e80039f0b70039d0bf00e74f4000d0
:10ca2000010036003970ef00f20047000e80e80088
:10ca3000020007000080fa00000006002600fa004d
:10ca400010179800211798000040eb00104798003d
:10ca50000040eb00004f78000c0037001e409000b3
:10ca60000080fb009e80fb001e11900081004100b1
:10ca7000914078000080e800017778001e40900027
:10ca80000040e800104798001e4fe8001e40780064
:10ca9000ef4f5000f1ff36000040eb00004f7800f0
:10caa0000c0037001e4090000080fb009e80fb00c1
:10cab0002e11900081004100914078000080e80034
:10cac000017778001e4090000040e8001047980071
:10cad0001e4fe8001e407800ef4f5000f1ff360077
:10cae0003184800000002200008060000000e0002f
:10caf00002003200a6d0bf000b130700a6d0bf0073
:10cb00008e80e80002c2b300671307000080fa00bd
:10cb1000000006000000fa000080fa000000060095
:10cb20001800fa004057980051579800320f9800ab
:10cb3000ce5090004147980000042100104078003a
:10cb40005047980000042100104090006047980072
:10cb5000000421002040900070479800000421004c
:10cb600030409000004f98000004210040409000a9
:10cb7000104f98000004210050409000204f980072
:10cb800000042100300090004800de0000407800e2
:10cb9000304f9800000421003000900000407800e1
:10cba000404f9800de509000514f98003e08900092
:10cbb00010407800604f98003e0890000000e800a8
:10cbc00010407800704f98003e0890000080e80008
:10cbd00010407800005798003e0890006300400025
:10cbe0001040780010579800640047000001eb00e7
:10cbf000e1c0b300942a0700100798000040eb0042
:10cc0000004f78000a003700d08480009e80fb002f
:10cc1000e48040006ec17800410b27008100400095
:10cc2000824878000000e800d08488001e4fe800a9
:10cc30001e407800ed4f5000f3ff3600d084800096
:10cc40009e009000c808de0001417800410b2700db
:10cc500081004000824878000000e800d08488000d
:10cc6000d08480009e00900001417800410b270095
:10cc700081004000824878000000e800d0848800ed
:10cc8000d1848000d0738400808f5000010039006f
:10cc90009a30ef0098d0bf000040e80098f0b7004d
:10cca0000080fa00000006001600fa0040579800c5
:10ccb00051579800ce509000414798000004210041
:10ccc0001040780050479800000421001040900068
:10ccd00060479800000421002040900070479800b1
:10cce0000004210030409000004f98000004210013
:10ccf00040409000104f98000004210050409000e8
:10cd0000204f980000042100300090004800de0011
:10cd100000407800304f980000042100300090005f
:10cd200000407800404f9800de509000514f98002e
:10cd30000040eb00604f98000040eb00704f9800ff
:10cd40000040eb00005798000040eb00105798009f
:10cd5000640047000001eb00e1c0b3003a2a07007d
:10cd6000100798000040eb00004f78000a003700e1
:10cd7000d08480009e80fb00e48040006ec178007b
:10cd8000410b270081004000824878000000e80045
:10cd9000d08488001e4fe8001e407800ed4f500000
:10cda000f3ff3600d08480009e009000c808de00ab
:10cdb00001417800410b2700810040008248780043
:10cdc0000000e800d0848800d08480009e0090009d
:10cdd00001417800410b2700810040008248780023
:10cde0000000e800d084880098d0bf000040e80030
:10cdf00098f0b700d1848000d0738400808f5000f9
:10ce0000010039009a30ef000080fa0000000600af
:10ce10001600fa00405798008109210091407800df
:10ce2000214798000040eb00004f780033003700a6
:10ce30002e4090000004e000350032000040eb007e
:10ce4000104798000d0037001e4090008080fb00c6
:10ce5000e0848000420b270002014000124178006c
:10ce6000e380400002f778000000e800e0848800da
:10ce70001e4090000040e800104798001e409000bf
:10ce8000ef4f5000f0ff3600e1848000d073840043
:10ce9000808f5000010039009c30ef00f08480004a
:10cea00070004000f084880098d0bf000040e90086
:10ceb00098f0b700f1848000f0738400808f5000f8
:10cec0000d003900abd0bf000040e800abf0b70068
:10ced000b10a21009140780000e828001040780055
:10cee00080cf50000400360010c0b300abf0b70094
:10cef0009e30ef00070037001e4fe8004e509000b4
:10cf00009e40780080cf5000c9ff390001003700f3
:10cf1000000000000080fa00000006000800fa008f
:10cf20000000eb00000f7800e4004700000009005b
:10cf30008018eb008058eb0060b2270010407800aa
:10cf4000614060000004e000b7003a003ad0bf0042
:10cf5000f04f5000b4003a0030d983000010a00018
:10cf600030d98b000040eb00204798000a003700c2
:10cf70002e4090000080fb0041b027000080400060
:10cf8000104078000080fb001e0f40002e409000f3
:10cf90000040e800204798002e409000ee4f5000df
:10cfa000f3ff36001e0078003047980030b12700ac
:10cfb000904078003e40900080cf50001100320039
:10cfc000e0ceb30040479800a0cab3005047980095
:10cfd00010ceb30060479800640047003300200083
:10cfe0000001780041ccb300b0c1b300d3100700fa
:10cff00030d983000010a10030d98b00c320070076
:10d000008c00370040b0270010407800f74f5000e8
:10d0100011003200e0ceb30040479800a0cab30030
:10d020005047980020ceb300604798006400470046
:10d03000330020000001780041ccb300b0c1b30040
:10d04000be10070030d983000010a10030d98b003a
:10d05000ae2007007700370050b02700104078005e
:10d06000f04f500011003200e0ceb300404798006e
:10d07000a0cab3005047980030ceb3006047980074
:10d0800064004700330020000001780041ccb30069
:10d09000b0c1b300a910070030d983000010a1006f
:10d0a00030d98b00992007006200370060b027005c
:10d0b00010407800f04f500011003200e0ceb30075
:10d0c00040479800a0cab3005047980040ceb30034
:10d0d000604798006400470033002000000178009a
:10d0e00041ccb300b0c1b3009410070030d9830025
:10d0f0000010a10030d98b00842007004d003700bc
:10d1000070b0270010407800f34f5000110032003b
:10d11000e0ceb30040479800a0cab3005047980043
:10d1200050ceb300604798006400470033002000f1
:10d130000001780041ccb300b0c1b3007f100700fc
:10d1400030d983000010a10030d98b006f20070078
:10d150003800370020b1270010407800f74f50000a
:10d1600011003200e0ceb30040479800a0cab300df
:10d170005047980060ceb3006047980064004700b5
:10d18000330020000001780041ccb300b0c1b300ef
:10d190006a10070030d983000010a10030d98b003d
:10d1a0005a2007002300370080b027009040780005
:10d1b000000421000148780090b0270090407800da
:10d1c0000004210011409800a0b027009040780092
:10d1d0000004210021409800b0b027009040780062
:10d1e0000004210031409800c0b027009040780032
:10d1f0000004210041409800d0b027009040780002
:10d200000004210051409800000421008000eb0040
:10d210003100980030d983000000a00030d98b0085
:10d220003a2007003970ef0030d983000010a100c8
:10d2300030d98b000080fa00000006007000fa0070
:10d240008e0078000106b000070009008018eb008e
:10d250000000200001f02b00008fbe00703d2b006d
:10d26000d1f52b002007980031079800b0aa2a00ba
:10d27000612a24004007980051079800f0262100f9
:10d2800031c023006007980071079800f0f4270070
:10d2900021022400000f9800110f98006000b800d0
:10d2a000200f9800310f980040132600a10424009d
:10d2b000400f9800510f98006000b800600f980070
:10d2c000710f9800c079290071152400001798008b
:10d2d000111798006000b8002017980031179800c7
:10d2e0006000b80040179800511798006000b8001f
:10d2f00060179800711798006000b800001f980030
:10d30000111f98006000b800201f9800311f98007e
:10d310006000b800401f9800511f98006000b800de
:10d32000601f9800711f98006000b80000279800e7
:10d33000112798006000b800202798003127980036
:10d340006000b80040279800512798006000b8009e
:10d3500060279800712798006000b800002f98009f
:10d36000112f98006000b800202f9800312f9800ee
:10d370006000b800402f9800512f98006000b8005e
:10d38000602f9800712f98002e099000be09900020
:10d390006e089000fe089000ddcd07006017980031
