:020000040000fa
:080000000002040000000000f2
:020000040000fa
:0400080010050000df
:020000040000fa
:04000c0010050000db
:020000040000fa
:0400100010050000d7
:020000040000fa
:0400140010050000d3
:020000040000fa
:0400180010050000cf
:020000040000fa
:04001c0010050000cb
:020000040000fa
:0400200004050000d3
:020000040000fa
:0400240010050000c3
:020000040000fa
:0400280010050000bf
:020000040000fa
:04002c00fa020000d4
:020000040000fa
:0400300010050000b7
:020000040000fa
:04003400c004000004
:020000040000fa
:0400380010050000af
:020000040000fa
:04003c0010050000ab
:020000040000fa
:0400400010050000a7
:020000040000fa
:0400440010050000a3
:020000040000fa
:04004800100500009f
:020000040000fa
:04004c00100500009b
:020000040000fa
:040050001005000097
:020000040000fa
:04005400a6030000ff
:020000040000fa
:04005800100500008f
:020000040000fa
:04005c00100500008b
:020000040000fa
:040060001005000087
:020000040000fa
:04006400580400003c
:020000040000fa
:04006800100500007f
:020000040000fa
:04006c00100500007b
:020000040000fa
:040070001005000077
:020000040000fa
:040074001005000073
:020000040000fa
:040078006004000020
:020000040000fa
:04007c00100500006b
:020000040000fa
:040080001005000067
:020000040000fa
:040084001005000063
:020000040000fa
:04008800100500005f
:020000040000fa
:04008c00100500005b
:020000040000fa
:040090001005000057
:020000040000fa
:040094000404000060
:020000040000fa
:04009800100500004f
:020000040000fa
:04009c00100500004b
:020000040000fa
:0400a0001005000047
:020000040000fa
:0400a4003a0400001a
:020000040000fa
:0400a800100500003f
:020000040000fa
:0400ac00100500003b
:020000040000fa
:0400b0001005000037
:020000040000fa
:0400b4001005000033
:020000040000fa
:0400b800100500002f
:020000040000fa
:0400bc00100500002b
:020000040000fa
:0400c0001005000027
:020000040000fa
:0400c4001005000023
:020000040000fa
:0400c800100500001f
:020000040000fa
:0400cc00900400009c
:020000040000fa
:0400d0001005000017
:020000040000fa
:0400d4001005000013
:020000040000fa
:0400d800100500000f
:020000040000fa
:0400dc00100500000b
:020000040000fa
:0400e0001005000007
:020000040000fa
:0400e4001005000003
:020000040000fa
:0400e80010050000ff
:020000040000fa
:0400ec00f20300001b
:020000040000fa
:0400f00028040000e0
:020000040000fa
:0400f40010050000f3
:020000040000fa
:0400f80010050000ef
:020000040000fa
:0400fc0010050000eb
:020000040000fa
:0401000010050000e6
:020000040000fa
:0401040010050000e2
:020000040000fa
:0401080010050000de
:020000040000fa
:04010c0010050000da
:020000040000fa
:0401100010050000d6
:020000040000fa
:0401140010050000d2
:020000040000fa
:0401180010050000ce
:020000040000fa
:04011c0010050000ca
:020000040000fa
:0401200010050000c6
:020000040000fa
:0401240010050000c2
:020000040000fa
:0401280010050000be
:020000040000fa
:04012c0010050000ba
:020000040000fa
:0401300010050000b6
:020000040000fa
:0401340010050000b2
:020000040000fa
:0401380010050000ae
:020000040000fa
:04013c0010050000aa
:020000040000fa
:0401400010050000a6
:020000040000fa
:0401440010050000a2
:020000040000fa
:04014800100500009e
:020000040000fa
:04014c00100500009a
:020000040000fa
:040150001005000096
:020000040000fa
:040154001005000092
:020000040000fa
:04015800100500008e
:020000040000fa
:04015c00100500008a
:020000040000fa
:040160001005000086
:020000040000fa
:040164001005000082
:020000040000fa
:04016800100500007e
:020000040000fa
:04016c00100500007a
:020000040000fa
:040170001005000076
:020000040000fa
:040174001005000072
:020000040000fa
:04017800100500006e
:020000040000fa
:04017c00100500006a
:020000040000fa
:040180001005000066
:020000040000fa
:040184001005000062
:020000040000fa
:04018800100500005e
:020000040000fa
:04018c00100500005a
:020000040000fa
:040190001005000056
:020000040000fa
:040194001005000052
:020000040000fa
:04019800100500004e
:020000040000fa
:04019c00100500004a
:020000040000fa
:0401a0001005000046
:020000040000fa
:0401a4001005000042
:020000040000fa
:0401a800100500003e
:020000040000fa
:0401ac00100500003a
:020000040000fa
:0401b0001005000036
:020000040000fa
:0401b4001005000032
:020000040000fa
:0401b800100500002e
:020000040000fa
:0401bc00100500002a
:020000040000fa
:0401c0001005000026
:020000040000fa
:0401c4001005000022
:020000040000fa
:0401c800100500001e
:020000040000fa
:0401cc00100500001a
:020000040000fa
:0401d0001005000016
:020000040000fa
:0401d4001005000012
:020000040000fa
:0401d800100500000e
:020000040000fa
:0401dc00100500000a
:020000040000fa
:0401e0001005000006
:020000040000fa
:0401e4001005000002
:020000040000fa
:0401e80010050000fe
:020000040000fa
:0401ec0010050000fa
:020000040000fa
:0401f00010050000f6
:020000040000fa
:0401f40010050000f2
:020000040000fa
:0401f80010050000ee
:020000040000fa
:0401fc0010050000ea
:020000040000fa
:0402000010050000e5
:020000040000fa
:0402040010050000e1
:020000040000fa
:0402080010050000dd
:020000040000fa
:04020c0010050000d9
:020000040000fa
:0402100010050000d5
:020000040000fa
:0402140010050000d1
:020000040000fa
:0402180010050000cd
:020000040000fa
:04021c0010050000c9
:020000040000fa
:0402200010050000c5
:020000040000fa
:0402240010050000c1
:020000040000fa
:0402280010050000bd
:020000040000fa
:04022c0010050000b9
:020000040000fa
:0402300010050000b5
:020000040000fa
:0402340010050000b1
:020000040000fa
:0402380010050000ad
:020000040000fa
:04023c0010050000a9
:020000040000fa
:0402400010050000a5
:020000040000fa
:0402440010050000a1
:020000040000fa
:04024800100500009d
:020000040000fa
:04024c001005000099
:020000040000fa
:040250001005000095
:020000040000fa
:040254001005000091
:020000040000fa
:04025800100500008d
:020000040000fa
:04025c001005000089
:020000040000fa
:040260001005000085
:020000040000fa
:040264001005000081
:020000040000fa
:04026800100500007d
:020000040000fa
:04026c001005000079
:020000040000fa
:040270001005000075
:020000040000fa
:040274001005000071
:020000040000fa
:04027800100500006d
:020000040000fa
:04027c001005000069
:020000040000fa
:040280001005000065
:020000040000fa
:040284001005000061
:020000040000fa
:04028800100500005d
:020000040000fa
:04028c001005000059
:020000040000fa
:040290001005000055
:020000040000fa
:040294001005000051
:020000040000fa
:04029800100500004d
:020000040000fa
:04029c001005000049
:020000040000fa
:0402a0001005000045
:020000040000fa
:0402a4001005000041
:020000040000fa
:0402a800100500003d
:020000040000fa
:0402ac001005000039
:020000040000fa
:0402b0001005000035
:020000040000fa
:0402b4001005000031
:020000040000fa
:0402b800100500002d
:020000040000fa
:0402bc001005000029
:020000040000fa
:0402c0001005000025
:020000040000fa
:0402c4001005000021
:020000040000fa
:0402c800100500001d
:020000040000fa
:0402cc001005000019
:020000040000fa
:0402d0001005000015
:020000040000fa
:0402d4001005000011
:020000040000fa
:0402d800100500000d
:020000040000fa
:0402dc001005000009
:020000040000fa
:0402e0001005000005
:020000040000fa
:0402e4001005000001
:020000040000fa
:0402e80010050000fd
:020000040000fa
:0402ec0010050000f9
:020000040000fa
:0402f00010050000f5
:020000040000fa
:0402f40010050000f1
:020000040000fa
:0402f80010050000ed
:020000040000fa
:0402fc0010050000e9
:020000040000fa
:0403000010050000e4
:020000040000fa
:0403040010050000e0
:020000040000fa
:0403080010050000dc
:020000040000fa
:04030c0010050000d8
:020000040000fa
:0403100010050000d4
:020000040000fa
:0403140010050000d0
:020000040000fa
:0403180010050000cc
:020000040000fa
:04031c0010050000c8
:020000040000fa
:0403200010050000c4
:020000040000fa
:0403240010050000c0
:020000040000fa
:0403280010050000bc
:020000040000fa
:04032c0010050000b8
:020000040000fa
:0403300010050000b4
:020000040000fa
:0403340010050000b0
:020000040000fa
:10040000efbb27000eff27000e0188000000000050
:10041000000020000000e000020032000001200087
:1004200020028800140007007f0107000000e000a0
:1004300003003a0080e8200001002000020037009d
:100440000000200001002000810f70000100320038
:100450000f000700000020000000e0000200320052
:100460000000020000000000ce4e0200000000006c
:100470000040da000000fe00e00220000000e00082
:1004800002003200002020009001880000000600d9
:10049000a1028800800478000000eb001f003700f4
:1004a000e284440054a0b4009905ba00e2844400f8
:1004b00054a0b4009906ba00e284440054a0b400e9
:1004c0000006eb00476fde00fd07b200ae018800ba
:1004d000636ce10003003a000ad801000000eb0061
:1004e0000e003700606ce10008003a00004deb00a0
:1004f0000a05e800020039003420ec000af0a000f0
:100500008b05e900f9ff3e00040037006168e10057
:10051000010032000086eb000b00070019c7ba008b
:100520001905ba000e04e00003003a000a00e000da
:10053000dbff3a0000000600fe07b200ae028800b2
:100540008a047800f5ff37000cd0a300e20f4d00bd
:100550001c003b0089027800354dba000a05e8000e
:10056000020039003420ec000af0a0008b05e900fd
:100570000f003200254dba000a05e80002003900dc
:100580003420ec000af0a0008b05e90008003200de
:100590000c00e0000600320015cdba000a05e800a4
:1005a000020039003420ec000af0a0008b05e900bd
:1005b0008984e80054a0b4000b00e000e2ff3a0098
:1005c000000006009902ba00055d78008b05e9007d
:1005d000f7ff3200c82ade00055d78008b05e900d0
:1005e000f3ff32000c00e000f1ff320019ddba0029
:1005f000eeff3700809fbe000000fa0000042100db
:10060000300090008000e8000004210031009800d4
:1006100000042100b000900070382100808f50004d
:100620000800360000042100504090008040e8009f
:100630000004210051409800000421008000eb00dc
:100640003100980000042100d0409000b0c3b300f6
:1006500080cf500008003600000421004040900088
:100660008040e8000004210041409800000421007f
:100670008040eb005140980000042100c0409000f1
:10068000b0c3b30080cf5000080036000004210042
:10069000304090008040e800000421003140980084
:1006a000000421008040eb0041409800000421003c
:1006b00030409000f74f5000080036000004210041
:1006c000204090008040e800000421002140980074
:1006d000000421008040eb0031409800000421001c
:1006e00020409000ff4f5000080036000004210019
:1006f000104090008040e800000421001140980064
:10070000000421008040eb002140980000042100fb
:1007100010409000ec4f500008003600000421000b
:10072000104078008040e800000421000148780073
:100730000004210011c0b300114098000028a90056
:100740000080fa004f00be00004006003600f800ae
:10075000809fbe00829fbe00849fbe00869fbe0019
:100760000200fa0020128000004f78001e4078003e
:100770000b55070060b3270010407800624060000e
:100780000004e0000f003a003cd0bf00624060006f
:100790000004e00007003a003ad0bf008080fb0070
:1007a00042b12700810041009e4878000040e800e7
:1007b0003af0b7003ad0bf00f04f500001003a00c5
:1007c0003c30a8000168a9000080fa004f03be0079
:1007d0004f02be004f01be004f00be003600f900c0
:1007e00000400600801f78000200fa0020128000fe
:1007f00000407800004f78000628a9000080fa0029
:100800004f007800004006003600f800809fbe00d0
:10081000829fbe00849fbe00869fbe000200fa0039
:1008200060138000004f78001e407800b35207002c
:100830000368a9000080fa004f03be004f02be000b
:100840004f01be004f00be003600f9000040060018
:10085000801f78000200fa006013800000407800da
:10086000004f78000648a9000080fa004f00780089
:10087000004006003600f800809fbe00829fbe0048
:10088000849fbe00869fbe000000fa005438070017
:1008900003e8a9000080fa004f03be004f02be002b
:1008a0004f01be004f00be003600f90000400600b8
:1008b0000000fa0001e8a9000080fa0000400600ec
:1008c0003600f800809fbe00829fbe00849fbe005d
:1008d000869fbe000000fa000288a90040b32700ee
:1008e00010407800644060000004e0000300320023
:1008f000a0d983000020a100a0d98b0037360700c3
:100900005a10a8000080fa004f03be004f02be003c
:100910004f01be004f00be003600f9000040060047
:100920003600f800809fbe00829fbe00849fbe00fc
:10093000869fbe000000fa0040b3270010407800f8
:10094000644060000004e00003003200a0d983008e
:100950000020a100a0d98b00ef5507001f3607002b
:100960000528a9000080fa004f03be004f02be0018
:100970004f01be004f00be003600f90000400600e7
:100980003600f800809fbe00829fbe00849fbe009c
:10099000869fbe000400fa0000000900001feb0063
:1009a000005feb003e00b100a0c1b300004f780033
:1009b000e0ccb3001047980020c0b3002047980057
:1009c000330020000e01780041ccb300b0c1b30069
:1009d000bd420700a0d983000020a000a0d98b0051
:1009e000fe350700322ea9000068a9000080fa0039
:1009f0004f03be004f02be004f01be004f00be00bd
:100a00003600f90000400600801f78000000fa0060
:100a1000204680000080fa004f0078000040060069
:100a20000040da000000fe00000005000001be00ea
:100a3000220007000470a70003f0a1006509b100bf
:100a4000160032000d0035006828e1000600350070
:100a5000f0ff2f00f1ff27000300e00013003b0030
:100a600001002800000005000000400081804800cf
:100a70008502e900fcff3a0008003700f88f4200c9
:100a800002003c008000eb00000005008100d10066
:100a90000080d3008502e800fcff3a000300e0007c
:100aa00002003b0060001000e0801800000006001b
:100ab0004f89de008201780005023700c70ade0098
:100ac000f107b200f50fb20008003200e1cf42009a
:100ad000020032000170a00024000500810f7000a8
:100ae000010032000408050044000500810f700079
:100af00002003a00140005008502e90000004000f1
:100b000081c04800fcff3b000170a00024000500ec
:100b100007f82700078361000638e10004003a0067
:100b2000f7072000878361008703710001003a0006
:100b300003f0a200889fbe008a9fbe008c9fbe006b
:100b4000470ade000480a100c71ade000580a1006c
:100b5000070028000785600087856100f70f2000e7
:100b60000720e1009e0032000728e1009c003200cf
:100b7000010678000400e000b4003200f70720000e
:100b8000878060000170a0000500e000c000320016
:100b9000f7072000878161000370a000050652005e
:100ba0000f003a000b50e1000b0032000308e10097
:100bb00002003a000200e1007e0032000204500010
:100bc00083845800040031000001fd008101fd0014
:100bd0008402fd008a05fd006044b8002100370052
:100be0000520e10005003d000001fd008101fd0040
:100bf0008402fd008a05fd00050652007a60e100ce
:100c0000050035000170a1004722dd0084807000de
:100c10008a807000630037006044b800ef0266000d
:100c200007ff2f00070666000500e00006003400fd
:100c3000f08312008714dd000511de00071bdd00c4
:100c4000060171008519de007060e10005003500c5
:100c50000904780082047800030178008001eb0029
:100c6000700656000b50e10003003a0002004000fd
:100c7000838048000400370060041400e0841c00f6
:100c800002005800838058000188a300060032004b
:100c90008100d1000080d3008984d3000884d30070
:100ca0000402e800270037000178a30025003a007d
:100cb0000100e000030032008186cf006986560003
:100cc0000a0037008c0020000000e00004003a0019
:100cd00009007800880478000004eb0070025200dc
:100ce0008086cf000d0646000c06e9007060e1002a
:100cf000060035008000780009007800880478003c
:100d00000004eb0070065600700252000c00e00078
:100d10000c0034008c08dd00f00316000703de0031
:100d2000868070000c00dd00074bde0006007000be
:100d30008c4cdd000743de00868474000c44dd002b
:100d40000c0252006120e1002000350061016000ca
:100d50000700280087816400f7ff2700878364006d
:100d6000070374000300e0000600320082037300f2
:100d7000040032000000e800e08048000188a30081
:100d80000e003a00f70f20000720e1004a003d0066
:100d90000170a1004722dd00810072008a8070008e
:100da0000000be004f06be004f05be004f04be004f
:100db000000006006000b800faff37008100d10093
:100dc0000080d3000402e800eeff37000401780041
:100dd00089017400c20007008a807000f1ff3700ab
:100de00018010700070278000001fd008101fd00e5
:100df0001401070087027800850372000778a300ba
:100e0000040032000001fd008101fd002701070000
:100e1000e4ff3700850362000768a3000800320082
:100e20000b50e10003003200f0ff2f00f1ff27001c
:100e3000dcff37000001fd008101fd00d9ff370014
:100e40000468a300d7ff3200faff3700f8ff27003d
:100e5000888360000b003a000000e00009003a00bf
:100e60008303640082837300020032000200be002c
:100e7000ccff37000b50e100ceff3a000200be006d
:100e8000c8ff370014002000810064003eff3700d7
:100e9000f8ff27008883610004003a000200e000a8
:100ea00002003a008c007800beff370015002000d9
:100eb0008301640039ff370001f82700000020009b
:100ec00081007500b7ff3700038368000700280022
:100ed00007036300470ade000480a100c71ade0092
:100ee0000580a100f70f20000720e100420032003a
:100ef0000728e10040003200889fbe008a9fbe00a4
:100f00008c1f7800f107b200f307b2000400e00084
:100f1000640032000170a0000500e00068003200ab
:100f20000370a00085054200eb07b1000204b80081
:100f30000302b8008484440060854a00020ab800b5
:100f4000848444000a854a00030ab8000405450069
:100f5000040033000804d0008984d2000a85d2003e
:100f60008b05e9006158e1003d00350002102000ca
:100f7000090161000308200089816100f707200052
:100f80008783640008867300c84cde00c853dd0008
:100f9000878474004855de000300e000060032003c
:100fa00082037600040032008904e80060054d00e9
:100fb0000a88a3000c003a00f70f20000758e10050
:100fc00044003d000a70a100c75ddd000a85750080
:100fd0008a007300090078004f0678004f05be00b4
:100fe0004f04be00000006000a05d1008984d3002a
:100ff0008b05e800f0ff3700881f780006047800b2
:1010000090000700070278000001fd008101fd004b
:101010008c00070087027800850372000778a30020
:10102000050032000001fd008101fd009f00070066
:101030004f04780000000600850372000748a300f3
:1010400003003200f0ff2f00f1ff2700f8ff370008
:101050000000200001f8270088807000f4ff3700ae
:10106000880178004848dd00808171004848de0032
:10107000c850dd0001007000c850de000604780092
:101080000b0178001600070088807000d2ff37003f
:101090000500e00005003200170020003a000700bc
:1010a0009dff370081037000f9ff3a008600780049
:1010b0004f0678004f05be004f04be00000005003b
:1010c00083037100f9ff3200270020002e00070083
:1010d00094ff370001f8270086807000f4ff370086
:1010e0000100e00026003200610111007810e100eb
:1010f00023003c006022b8007010e10004003500bd
:1011000080027800010078008000eb00700151003f
:101110000200e0000900340070031100062add001f
:10112000822ade008603dd00878272000200de0074
:10113000860bdd00070070008208de0084817100ec
:10114000f4ff2700048262008481710004002800fb
:10115000848262006102600005f0a60000000600c3
:1011600004827100070032000000e800e0804800bf
:10117000000006000002be006000b800efff37006c
:101180006000b80000000600889fbe000004eb006d
:101190006138e10016003a000100e00008003a0062
:1011a000c800de004800dd00880020000100e000eb
:1011b00003003a00c800de004800dd006804440077
:1011c0008184cf00e9845400060034008908dd00e2
:1011d000f08314008703de00878070000900dd00c3
:1011e00009044400610214004f04be000000060020
:1011f0000300e00008003a00c811de004811dd00dd
:10120000880020000300e00003003a00c811de005f
:101210004811dd00680444008384cf00e984540051
:10122000060034008919dd00f08314008713de0006
:10123000878171000911dd0009044400e1021400f6
:10124000e9ff37002700200001f0a7001700200069
:10125000470bde00f60fb200040032000643e80040
:101260000a0032004702b3000000060001037800c4
:10127000f607b2000603700002003a000703b3004d
:10128000000006008702b30000000600010378009a
:10129000f607b20006037000020032000770a000db
:1012a000000006000760a000000006000478a3000c
:1012b000040032000578a300030032000168a30097
:1012c00001003a000200be000160a000000006001c
:1012d000881f7800030478000300e00007003d0049
:1012e00060001000e080180060011900e081190022
:1012f00002003b0001f02d0003003700040007004e
:1013000008f0a70001f0a0004f04780000000600dc
:10131000889fbe008a9fbe00008270000402710098
:1013200004827100260032000004be000200be00ec
:101330006011b8006b092000950220000182cf00e7
:101340000a0039000541b1000082cf0007003900d2
:101350000541b1000982cf00040039000541b10008
:101360000882cf00010039000541b100054252005a
:10137000120032000a003b008281710061016400aa
:101380008100d1000080d3008984d3000884d30079
:101390008b05e8000442e800f7ff3a000700370039
:1013a0000804440089844c00000048008180480003
:1013b0008b05e9000442e900f9ff3a000300070049
:1013c0004f05be004f04be00000006008100200053
:1013d000618055000b003d000b00200061fe2f00d6
:1013e0000100e1001d003400828171006101640090
:1013f0008904d1000884d3000000e800faff3a0015
:1014000071002000610064000300700002006000b1
:101410000900320061044400e0844c000988a50002
:10142000050032008b05e8006808e10002003a0080
:101430008904d1000884d300f20f20000258e10093
:1014400005003d00c75ddd00f907b2008980750029
:1014500008007800000006000bf827008b007800d9
:1014600000000500889fbe008a9fbe008c9fbe00c2
:101470000004be000400200005f8270085836000fa
:1014800004037800840f5300858f5b0007003a0047
:101490000801be000800be008bfe07000001be0070
:1014a0000800be00a3fd070010003700e00f500049
:1014b000e08f58000f003c008101780003f0a1008c
:1014c00000017800e00f5100e08f59006a003200ff
:1014d00010022000e0dd8b000801be000800be0005
:1014e0008bfd07000001be006a0007000004be007b
:1014f00061003700478cde00cf8cde00e00f540027
:10150000e08f5c000f003a006044b8000400370030
:10151000000040008180480061044400e0844c00e9
:101520000400200005082000818162000401780089
:10153000e00f5100e08f5900f5ff32006104140004
:10154000e0841c00f807b1000980b1008101780037
:10155000f307b200000178000200be000170a00095
:101560000808a3000200320000004000818048000b
:101570008984d1000884d3000000400081804800a5
:101580009401200002002000031020006055b800e4
:101590006066b8000c0341008d834900800f530042
:1015a000818f5b0006003c000606410087864900eb
:1015b00006005000878058000a0541008b854900cd
:1015c00000004000818048008301d1000281d300e7
:1015d0000402e900efff3a00e00f5000e08f5800ee
:1015e0001b0032000226240023da20000000200025
:1015f00001f8230046fd07000200200003f8230045
:10160000220007000000e00011003500022624003f
:1016100023da20000000200001f8230045fd070028
:101620000200200003f82300180007000000e0007b
:101630000300340062054500e0854d0004003700da
:101640006000b800610065000005450081854d001f
:10165000c744dd00080020000000200001f0230046
:1016600008044000898448008b85d1000a85d30096
:101670000804450089844d000800be004f06be00e6
:101680004f05be004f04be0000000600f4ff2f000f
:1016900065013700889fbe008a9fbe008c9fbe00f8
:1016a0001b0020000202be0005866800060028001c
:1016b000060666004709de00f20fb2008200320023
:1016c0000243e80080003200c729de00f30fb200b9
:1016d0007d0032000343e8007b003200f107b200d6
:1016e0000170a000f507b2000570a000c708dd007a
:1016f0004903de00868070004700dd00c72add0058
:101700004923de00868272004722dd000305510076
:10171000040350008583580003003100000040009e
:10172000818048000a05e9008c1f78008a9fbe006e
:1017300004005000858058000402420085824a005f
:1017400000004000818048000005eb000004be005e
:101750006033b8000406be000d48e10056003100b9
:10176000050009004dccd8000c01b8000d02b800ee
:101770008481410060824a008283530003045c003c
:1017800084845c0060055d000a00e00025003a00ea
:10179000800578000d40e1004900310088007800a4
:1017a00007007800050009004d88d8000c01b8003a
:1017b0000d02b8008481410060824a00600311007c
:1017c00083835b0004045c00e0845c000900e000ab
:1017d00021003a004f01be000300e0002b00320060
:1017e000e3016000070673008c8171000100320084
:1017f000640070004200de004e5edd000c007000f0
:10180000c258de0001e0a00081000700cf0178008f
:10181000818071004f06be004f05be004f04be0020
:10182000000006008c8343000d044c00e0844c0053
:1018300060054d000000e9000a00e000d4ff32001e
:101840008c8343000d044c00e0844c0060054d0087
:101850000000e900ceff37000c0343008d834b00ee
:1018600060044c00e0844c000000e9000900e00046
:10187000d8ff32000c0343008d834b0060044c0002
:10188000e0844c000000e900d2ff37004200de0097
:101890004e5edd000c007000c258de0001e0a000ca
:1018a000cf0178000300e000daff32006000100092
:1018b000e0801800d7ff3700f0ff2f00aaff3700a5
:1018c000f0ff2f00b9ff37000404be005dfe0700e3
:1018d000870678000004fd008104fd0059fe070022
:1018e000078366000678a300030032000960a700a2
:1018f0000800be002c0037000d78a3000200320063
:101900000800be00280037000778a30026003a0030
:1019100001f0a10009f0a1000668a3000300320055
:10192000f1ff2700f0ff2f00baff37000d68a3007a
:10193000030032000800be008c807000b5ff370045
:101940000768a30007003a000648a300030032001e
:10195000f1ff2700f0ff2f00aeff37000d48a30076
:10196000030032006000b8008c807000a9ff3700cf
:101970000748a3000400320001f8270000002000ff
:101980008c807000a3ff3700740007000004fd0086
:101990008104fd0002057800700007000802be0007
:1019a0008a01780059ff37000160a0001202200070
:1019b0001286880097ff37000100e0001200320015
:1019c0000500e00010003200889fbe008a9fbe0024
:1019d0008c9fbe000006eb0001f8a300030032005c
:1019e00060001000e08018000cf0a00005f8a300d3
:1019f0000300320060021200e0821a000cf0a20024
:101a00008005eb0041ff37006000b80002000500d0
:101a100081017000270032008002eb0001f8a30072
:101a20000300320060001000e08018001500200064
:101a3000f40720000202420020003400f7032000d7
:101a400087036000060420000003630002082000f2
:101a5000000161004700de00c909dd00008071005f
:101a6000c708de000600e0000800320087037100ae
:101a7000060032001000b0000180b0000188a30011
:101a800002003200c108de000402e800f107b200e3
:101a9000f30f20000320e10003003d004722dd009a
:101aa000810072002900370001f827000000eb00d8
:101ab000260037006000b80000000600680212002f
:101ac0007f20e100020034006000b8001f003700f2
:101ad0006011b8007020e10004003500800178003a
:101ae000010078008000eb00700252000400e0006a
:101af00009003400f00312000719dd008419de002c
:101b00000703dd00868171000400de00070bdd00a5
:101b1000060070008408de00f7ff2700838363005f
:101b200087037100060028000303630007003200ea
:101b30000700e00003003a006101600002817300c9
:101b4000020032001000b0000180b0000500a600c5
:101b50000000060001f0a000000006004f0ade00b1
:101b60004709de00f107b200f20fb2000b003200ad
:101b7000f207b1000170a000c708dd00c901de0056
:101b8000838070004700dd000400a600000006000e
:101b900060001000e080180000000600810f700057
:101ba00001003a00000006008182cf000500e0003d
:101bb00010003e008082cf00ee8242007028e100db
:101bc0000400390007003e00800078000000eb00b0
:101bd0000e003700708312008600de000500dd0075
:101be0000a003700708352008600dd000000eb0021
:101bf00006003700e28252008508dd007083120083
:101c00000603de00868070000500dd007507b00069
:101c10000501ea000400a6000000060060001000b4
:101c2000e080180000000600889fbe008a9fbe006a
:101c3000841f7800170007004f0078001100330060
:101c4000f0ff2f00838f6c0006003b000405650049
:101c50000a00a7000800370009f0a60010002000c5
:101c600008003700820f5400838f5c0003003900a6
:101c70001000200001003e000000200009f0a70035
:101c80000000ea004f05be004f04be000000e00067
:101c9000000006000004be0088fb07000003be0031
:101ca0000405be000200be0084fb0700844f7500df
:041cb000000006002a
:020000040000fa
:101cb4000a0f00000f050000140f00000a32000094
:101cc4007d000000003000000000000060e3000020
:101cd40016000000300000000001000032c80000bf
:101ce40001000000000800000000000000080000df
:101cf40028280000282800008000000000080000b8
:0c1d040080000000002000000300000030
:020000040000fa
:101d1000c01000000200000080000000c478000035
:101d20004002000080000000047b0000b8000000ba
:101d30008000000000100000b600000080000000dd
:101d4000c41000000030000082000000ff0000000e
:101d50000000000000000000000000000000000083
:101d60000000000000000000000000000000000073
:101d70000000000000000000000000000000000063
:101d80000000000000000000000000000000000053
:105d4000000000000000000000000000c44000004f
:105d50000030000082000000ff0000000000000092
:105d60000000000000000000000000000000000033
:105d70000000000000000000000000000000000023
:105d80000000000000000000000000000000000013
:105d90000000000000000000000000000000000003
:109d50000000000000000000b61000000a00000033
:109d60008200000001010100010101000101010068
:109d700000000000c4700000000800008000000027
:109d8000bc7b00000200000080000000c210000048
:0c9d900002000000800000000000000045
:020000040000fa
:109d9c002000fa000f000900001feb000e02b100ba
:109dac000f3007000004210071c1b3000148780096
:109dbc000004210051c0b3001140980000042100a0
:109dcc00f1c0b300214098000004210081c0b30011
:109ddc0031409800000421008040eb004140980085
:109dec00000421008040eb00514098000004210049
:109dfc008000eb00310098001030ef001230ef00c3
:109e0c00594ea900582ea800010037000000000090
:109e1c000140800000082000008060000000e0008d
:109e2c00faff320000e8a90006d0bf000040e800ad
:109e3c0006f0b70007d0bf000040e80007f0b700fd
:109e4c0008d0bf000040e80008f0b70040b327007e
:109e5c00104078000044b2000004e0001000320012
:109e6c0040b327009040780000c8b30000c06000e9
:109e7c000004e0000200320009050700080037006a
:109e8c0050b3270010407800614060000004e000ef
:109e9c0002003200930307000100370000050700a1
:109eac0053d0bf000040e80053f0b700310521004b
:109ebc009140780010e728001040780080cf5000c7
:109ecc00080039005370ef000004210030009000ae
:109edc0060828800f6070700000421003000900023
:109eec005082880006d0bf00e24f500007003a00b5
:109efc000ad0bf000040e8000af0b70009d0bf004c
:109f0c000040e80009f0b7000670ef007100210076
:109f1c009140780080ccb30080cf500001003a0013
:109f2c000770ef0008d0bf00e54f500001003a0069
:109f3c000870ef0009d0bf00e44f500001003a0058
:109f4c000970ef000ad0bf00ea4f500022003a001f
:109f5c001ad0bf000004e0001b0032008184800096
:109f6c0000002100008060000000e00010003200c2
:109f7c009190a90080c3b300004f7800f0c4b300e7
:109f8c0010479800b0c4b30020479800b9d0bf0068
:109f9c0030479800430020000e01780041ccb300fc
:109fac00b0c1b300451d0700b9d0bf00f2200700b7
:109fbc0060b3270010407800684060000004e000a7
:109fcc0001003200f12107000a70ef000bd0bf0036
:109fdc000040e8000bf0b7000bd0bf00e64f40008c
:109fec0019003a001ad0bf000004e00011003a003a
:109ffc0019d0bf000040e80019f0b7001ad0bf001c
:10a00c000004e0000c003a0091012100914078001e
:10a01c00e0e528001040780080cf500006003900a1
:10a02c005c0007007900070010c0b3001af0b700fd
:10a03c0001003700000000000b70ef000cd0bf00d7
:10a04c000040e8000cf0b7000cd0bf00e44f50000b
:10a05c000e003a0014d0bf000040e80014f0b70026
:10a06c004101210091407800a0e5280010407800c3
:10a07c0080cf5000010039001470ef000c70ef001d
:10a08c000dd0bf000040e8000df0b700d10021005a
:10a09c0091407800c0c3b30080cf500022003a003a
:10a0ac0017d0bf000040e80017f0b7007101210085
:10a0bc0091407800c0e528001040780080cf500017
:10a0cc0004003900b0d983000000a000b0d98b0087
:10a0dc001770ef0040b32700104078000044b20026
:10a0ec000004e00005003a0040b32700104078005f
:10a0fc00624060000004e0000a00320018d0bf008b
:10a10c000040e80018f0b700810121009140780070
:10a11c00d0e528001040780080cf500001003900b5
:10a12c001870ef000d70ef0000e8a90038ff370041
:10a13c000200fa00000f78001e007800a1c1b300e5
:10a14c00014878001e00e800a1cab300014878005d
:10a15c001e80e80011c0b300014878009e00780012
:10a16c006380400011c0b300014878009e00780065
:10a17c006480400081c1b300014878009e007800e3
:10a18c006580400071c0b300014878000080fa007f
:10a19c00000006000000fa000080fa000000060033
:10a1ac000000fa00a0d983000000a100a0d98b0008
:10a1bc00a0d983000010a100a0d98b00a0d98300e6
:10a1cc000020a100a0d98b00a0d983000060a100c1
:10a1dc00a0d98b00a0d983000050a100a0d98b007e
:10a1ec00a0d983000070a100a0d98b00a0d9830056
:10a1fc000080a100a0d98b00a0d983000090a10001
:10a20c00a0d98b000080fa00000006000000fa00c4
:10a21c0040b3270010407800624060000004e0006a
:10a22c0007003a00deff0700a0d983000010a00051
:10a23c00a0d98b00b0d983000030a000b0d98b001e
:10a24c000080fa00000006000400fa00000009007b
:10a25c00001feb00005feb003e00b100582607002a
:10a26c0050c0b30050270700d1cab300814f500033
:10a27c0003003a00a0260700592707000b003700ff
:10a28c00e0ceb300004f7800e0ceb300104798004a
:10a29c0010ceb30020479800330020000e01780048
:10a2ac0041ccb300b0c1b300841c070030c0b30074
:10a2bc0089330700d1cab300814f500003003a0024
:10a2cc0030c0b300b53307000b003700e0ceb3004d
:10a2dc00004f7800e0ceb3001047980020ceb300ba
:10a2ec0020479800330020000e01780041ccb300c9
:10a2fc00b0c1b300711c070040c0b3007633070037
:10a30c00d1cab300814f500003003a0040c0b300e3
:10a31c00a23307000b003700e0ceb300004f7800eb
:10a32c00e0ceb3001047980030ceb3002047980021
:10a33c00330020000e01780041ccb300b0c1b30053
:10a34c005e1c070011360700004f78009e40780015
:10a35c0000c3b30080cf500002003a003a36070029
:10a36c000b003700e0ceb300004f7800e0ceb30016
:10a37c001047980040ceb3002047980033002000cf
:10a38c000e01780041ccb300b0c1b3004b1c0700e8
:10a39c00b0cbb300004f7800c0ccb300104798008e
:10a3ac00d0cdb30020479800330020000e01780078
:10a3bc0041ccb300b0c1b300401c0700a0d983004e
:10a3cc000060a000a0d98b000080fa0000000600fd
:10a3dc000000fa000e2707007226070030c0b300f9
:10a3ec008d33070040c0b3008b33070022360700c3
:10a3fc000080fa00000006000800fa001007980020
:10a40c002107980062479800734798000040eb00c2
:10a41c00004f78000d0037006e4090000080fb006c
:10a42c00ae009000008040009e80fb001e0190005a
:10a43c008100410091407800014878006e40900006
:10a44c000040e800604798001e4fe8007e409000f6
:10a45c009e40780080cf5000efff39000080fa005a
:10a46c00000006000400fa00000f78002147980055
:10a47c000080fa00000006000a00fa000000eb0061
:10a48c00000f78000000eb0010079800e500470073
:10a49c00030009008058eb000040eb004047980097
:10a4ac0038d0bf000080fb00e20f50005a00320091
:10a4bc00e20f500005003c000000e00058003200a4
:10a4cc00e10f50000600320050003700e30f50003f
:10a4dc0028003200e40f50004a0032004b003700d5
:10a4ec004e4090000004e00010003a005e409000e6
:10a4fc000080fb006f006000f0828800f08280001a
:10a50c00c800dd006e4090000080fb000100700070
:10a51c00f0828800f08280004300dd00000f78009c
:10a52c001e0078005f0007000e00370030c3b30038
:10a53c0050479800e0cdb30060479800d0cab300f4
:10a54c00704798000040eb00004f980065004700f2
:10a55c00430020000001780041ccb300b0c1b3002f
:10a56c00d61b070038d0bf000040e80038f0b70019
:10a57c002c0037004e4090000004e00010003a0020
:10a58c005e4090000080fb006f006000008388003c
:10a59c0000838000c800dd006e4090000080fb004e
:10a5ac000100700000838800008380004300dd0000
:10a5bc00100798001e0090001c0007000e003700ca
:10a5cc0000c5b30050479800e0cdb3006047980039
:10a5dc00d0cab300704798000040eb00004f9800c1
:10a5ec0065004700430020000001780041ccb30017
:10a5fc00b0c1b300b11b070038d0bf000040e80069
:10a60c0038f0b7003870ef00060037003870ef00f4
:10a61c0000000000030037000000000001003700bc
:10a62c00000000000080fa00000006000200fa00a2
:10a63c00000f7800308380001e00400030838800bb
:10a64c0062d0bf000040e80062f0b70062d0bf00eb
:10a65c00e34f5000110036006270ef003083800031
:10a66c004200de00408388006630ef0041838000aa
:10a67c00b0d42100808f500008003e004183800040
:10a68c00c00c2100808f50000400360041838000f4
:10a69c0030962100808f5000000036000080fa00b8
:10a6ac00000006000200fa00000f780020838000f2
:10a6bc001e0040002083880063d0bf000040e800eb
:10a6cc0063f0b70063d0bf00e34f500005003600c5
:10a6dc006370ef00208380004200de00508388000e
:10a6ec006430ef000080fa00000006000800fa0059
:10a6fc00200798006147980036d0bf000004e000a6
:10a70c0042003a0040b0270071ccb30001487800f9
:10a71c0000042100a040900050b0270001487800b0
:10a72c0000042100b040900060b027000148780080
:10a73c0000042100c040900070b027000148780050
:10a74c0000042100d040900080b027000148780020
:10a75c0000042100300090004800de0080407800aa
:10a76c0090b02700014878000004210030009000d0
:10a77c0080407800a0b027000148780080838000da
:10a78c004800de0080407800b0b027000148780017
:10a79c008083800080407800c0b02700014878009a
:10a7ac002e00900090407800d0b02700014878002f
:10a7bc002e0090000000e80090407800e0b02700e8
:10a7cc00014878002e0090000080e800904078004e
:10a7dc00f0b02700014878002e0090006300400084
:10a7ec009040780000b12700014878002e009000be
:10a7fc00640040009040780010b1270001487800b8
:10a80c0030c0b30036f0b7005a00370036d0bf0066
:10a81c00e14f50002a003a0040b0270081ccb30031
:10a82c0001487800808380004800de00804078007a
:10a83c0050b0270001487800808380008040780069
:10a84c0060b02700014878002e00900090407800fe
:10a85c0070b02700014878002e0090000000e8003e
:10a86c009040780080b02700014878002e009000be
:10a87c000080e8009040780090b0270001487800f4
:10a88c002e0090006300400090407800a0b027009c
:10a89c00014878002e009000640040009040780041
:10a8ac0000cfb30080c06000b0b027000148780032
:10a8bc0036d0bf000040e80036f0b7002d0037005e
:10a8cc0036d0bf00e24f50002a003a00b0b027004b
:10a8dc00904078002e0090006400400010407800fa
:10a8ec000080fb004400de000040780080c0700057
:10a8fc00b0b02700014878002e00900090407800fe
:10a90c00c0b02700014878002e0090000000e8003d
:10a91c0090407800d0b02700014878002e009000bd
:10a92c000080e80090407800e0b0270001487800f3
:10a93c002e0090006300400090407800f0b027009b
:10a94c0001487800808380004800de008040780059
:10a95c0000b1270001487800808380008040780097
:10a96c0010b127000148780036d0bf000040e80045
:10a97c0036f0b70036d0bf00e34f500066003a0007
:10a98c000001eb00e1c0b30040b027008e3307009c
:10a99c00100798001e0090004800de0080407800f0
:10a9ac0020b12700014878001e00900080407800fc
:10a9bc0030b127000148780050b3270010407800d0
:10a9cc00644060000004e00027003a000000eb0047
:10a9dc00000f78000d003700f080800041b0270098
:10a9ec009e80400011417800410c21008100400004
:10a9fc00824878000000e800f08088009081800098
:10aa0c000000e800908188001e0fe8001e0078000e
:10aa1c00ef0f5000f0ff36009181800070738400be
:10aa2c00808f50000d00390028d0bf000040e80096
:10aa3c0028f0b70028d0bf008080fb006073840032
:10aa4c00808f5000020039001e30ef002870ef009c
:10aa5c003230ef003670ef002f00370010c0b3001b
:10aa6c0036f0b7002c00370050b3270010407800a8
:10aa7c00684060000004e00027003a000000eb0092
:10aa8c00000f78000d0037000081800041b02700d6
:10aa9c009e80400011417800410c24008100400050
:10aaac00824878000000e80000818800a0818000c6
:10aabc000000e800a08188001e0fe8001e0078004e
:10aacc00ef0f5000f0ff3600a181800070738400fe
:10aadc00808f50000e00390029d0bf000040e800e4
:10aaec0029f0b70029d0bf008080fb006073840080
:10aafc00808f500003003900a0d9830000b0a00063
:10ab0c00a0d98b003430ef003670ef000200370014
:10ab1c0010c0b30036f0b7000080fa000000060049
:10ab2c002200fa00e10047001f0009008058eb00ea
:10ab3c0050b3270010407800624060000004e00031
:10ab4c001200320050b327009040780000c8b300c8
:10ab5c0000c060000004e0000c003a00a0d98300a3
:10ab6c0000f0a000a0d98b00a0d9830000a0a00009
:10ab7c00a0d98b00a0d9830000b0a100a0d98b0074
:10ab8c002230ef002430ef002030ef0050b32700cc
:10ab9c0010407800644060000004e00020003200a7
:10abac000040eb00004f78000a0037009e80fb004d
:10abbc0010818000420c21000201400012417800fb
:10abcc008100e80002f778000000e800108188009e
:10abdc001e4fe8001e407800ff4f5000f3ff360078
:10abec00b6d0bf008e00e80002c2b3008e1b070077
:10abfc001181800020738400808f50003300390055
:10ac0c00a0d9830000a0a100a0d98b003230ef00a6
:10ac1c002870ef002230ef001e30ef002b003700c1
:10ac2c0050b3270010407800684060000004e0003a
:10ac3c00260032000040eb00004f78000a0037007d
:10ac4c009e80fb0020818000420c24000201400009
:10ac5c00124178008100e80002f778000000e8005b
:10ac6c00208188001e4fe8001e407800ff4f5000e6
:10ac7c00f3ff3600b6d0bf008e00e80002c2b3006e
:10ac8c00691b07002181800020738400808f500095
:10ac9c000e003900a0d983000090a100a0d98b0030
:10acac00a0d9830000f0a100a0d98b002030ef00c8
:10acbc002230ef002430ef002970ef003430ef0029
:10accc00a0d9830000c0a000a0d98b000080fa009e
:10acdc00000006000200fa00000f78000080fa0065
:10acec00000006001200fa00e10047000f00090006
:10acfc008058eb000040eb001057980048d0bf0084
:10ad0c000080fb00e10f500095003200e10f500075
:10ad1c0003003c000000e000060032005301370045
:10ad2c00e20f5000d7003200e30f50002701320031
:10ad3c004e01370049d0bf000080fb00e20f5000ed
:10ad4c002e003200e20f500005003c000000e00035
:10ad5c0008003200e10f5000190032007500370076
:10ad6c00e30f50003e003200e40f50005e00320052
:10ad7c0070003700e171800000002100008060004d
:10ad8c0000f0a7000000ea000000e9004f00de0020
:10ad9c00004078000080fb00610060004c00dd008a
:10adac00e171800001c0a10001007000e071880019
:10adbc0060c0b3003c320700808388005d00370020
:10adcc008e00e8007100470063c0b30001017800f9
:10addc0011c0b300cf2407000e00e8003225070095
:10adec000e00e80071b627009524070051c0b3008f
:10adfc0070b627003dfe07004e003700d0c0b300f0
:10ae0c00105798008e00e80071004700b4c0b300e2
:10ae1c008101780012c0b3008000780030c0b3000c
:10ae2c00193107000040eb00004f78000800370094
:10ae3c001e80fb009e80fb008100e800eec07800c5
:10ae4c00e2b3270000004100014878001e4fe800e3
:10ae5c001e407800ea4f5000f5ff360035003700f1
:10ae6c0038d0bf000004e00008003a0011c0b30065
:10ae7c0070c0b3004b300700f082880038d0bf00a0
:10ae8c000040e80038f0b7002a00370081032100a9
:10ae9c0091407800c0c3b30080cf500008003a0046
:10aeac008040eb0070c0b3003e3007000083880088
:10aebc0038d0bf000040e80038f0b7001d00370064
:10aecc0038d0bf000040e80038f0b7008103210003
:10aedc009140780070c7b30080cf5000140036004a
:10aeec003870ef00130037000e00e80061c0b300ab
:10aefc00453307000040eb00004f78000800370096
:10af0c001e80fb009e80fb008100e800eec07800f4
:10af1c0072b3270000004100014878001e4fe80082
:10af2c001e407800e54f5000f5ff36000100370059
:10af3c000000000049d0bf000040e80049f0b70015
:10af4c0049d0bf00ec4f5000cc0036004970ef00e8
:10af5c0048d0bf000040e80048f0b700ce003700f2
:10af6c0049d0bf000080fb00e10f50000e00320002
:10af7c00e10f500003003c000000e000060032002e
:10af8c0035003700e20f500018003200e30f50007c
:10af9c002f0032003000370060c0b300c231070010
:10afac00808388002c00370010c1b3001057980024
:10afbc008e00e8007100470063c0b3000101780007
:10afcc0011c0b300532407000e00e800b62407009c
:10afdc000e00e80071b627001924070051c0b30019
:10afec0070b62700c1fd07001b003700d0c0b300ae
:10affc00105798008e00e80071004700b4c0b300f1
:10b00c008101780012c0b3008000780040c0b3000a
:10b01c009d3007000040eb00004f7800080037001f
:10b02c001e80fb009e80fb008100e800eec07800d3
:10b03c0092b4270000004100014878001e4fe80040
:10b04c001e407800ea4f5000f5ff36000200370032
:10b05c00be0907000000000049d0bf000040e80016
:10b06c0049f0b70049d0bf00e54f500085003600cd
:10b07c004970ef0048d0bf000040e80048f0b7002e
:10b08c008500370049d0bf000080fb00e10f500065
:10b09c0008003200e20f5000150032000000e00002
:10b0ac003f003a0060c0b3007f3107008083880006
:10b0bc003b00370010c1b300105798008e00e80019
:10b0cc007100470063c0b3000101780011c0b300e8
:10b0dc00102407000e00e80071b62700d8230700e3
:10b0ec0051c0b30070b6270080fd07002c0037005c
:10b0fc0050b3270010407800624060000004e0006c
:10b10c000900320050b327001040780070406000f6
:10b11c000004e00004003a0081fe070000c1b30007
:10b12c0049f0b7001e00370039d0bf000004e00022
:10b13c0003003a00a403070000c1b30049f0b700b4
:10b14c0050b3270010407800704060000004e0000d
:10b15c00100032005081800061818000610040004d
:10b16c00e080480050818800618188005281800015
:10b17c00638180004073840051738400800f510000
:10b18c00818f5900050039002a30ef002c30ef0078
:10b19c000300370000000000010037000000000031
:10b1ac0049d0bf000040e80049f0b70049d0bf00cb
:10b1bc00ef4f5000350036004970ef0048d0bf000b
:10b1cc000040e80048f0b7003300370049d0bf001a
:10b1dc000080fb00e10f500008003200e20f50002d
:10b1ec00170032000000e00017003a0060c0b30006
:10b1fc002d310700808388001300370010c1b30085
:10b20c00105798008e00e8007100470063c0b3002f
:10b21c000101780011c0b300be2307000e00e80046
:10b22c00212407000e00e80071b6270084230700d4
:10b23c0051c0b30070b627002cfd07000200370088
:10b24c00610307000000000049d0bf000040e80087
:10b25c0049f0b70049d0bf00e24f50000d00360056
:10b26c004970ef004870ef000b0037004970ef0099
:10b27c004870ef00000000000700370000000000dd
:10b28c00050037000000000003003700000000003c
:10b29c0001003700000000000080fa0000000600ea
:10b2ac001600fa000040eb0010479800e40047003d
:10b2bc00070009008018eb000040eb004057980095
:10b2cc0048d0bf000080fb00e30f50002901320082
:10b2dc00e30f500007003c00e10f5000500032001b
:10b2ec00e10f5000c2003c000000e0000a003200f8
:10b2fc00db023700e50f5000da013200e50f500099
:10b30c0060013500e60f50001d023200e70f5000bf
:10b31c0083023200d202370049d0bf000080fb000c
:10b32c000000e00003003200e10f50001f0032006b
:10b33c00300037001e4090000004e0002a003a0064
:10b34c004e4090000080fb006f00600010079800da
:10b35c001e009000c800dd005e4090000080fb00e5
:10b36c0001007000808388006e4090000080fb001c
:10b37c006f006000100798001e009000c800dd00f0
:10b38c007e4090000080fb000100700010079800c8
:10b39c009e009000c05d2000808f5000140036008d
:10b3ac009e009000a183880012003700e400470043
:10b3bc007400470063c0b3000101780011c0b300f2
:10b3cc005423070064004700b723070064004700bc
:10b3dc0071b627001a23070051c0b30070b62700be
:10b3ec00c2fc07000300370000000000010037001a
:10b3fc000000000049d0bf000040e80049f0b70051
:10b40c0049d0bf00ea4f5000980236004970ef0057
:10b41c0048d0bf000040e80048f0b700a202370057
:10b42c0049d0bf000080fb00e10f50002800320023
:10b43c00e10f500003003c000000e0000600320069
:10b44c0060003700e20f500032003200e30f500072
:10b45c00490032005b0037001e4090000004e00001
:10b46c0055003a004e4090000080fb006f006000d9
:10b47c00100798001e009000c800dd005e40900090
:10b48c000080fb0001007000808388006e409000fb
:10b49c000080fb006f006000100798001e009000f9
:10b4ac00c800dd007e4090000080fb0001007000b1
:10b4bc00100798009e009000c05d2000808f500007
:10b4cc003f0036009e009000a18388003d003700ad
:10b4dc0010c1b30040579800e400470074004700c7
:10b4ec0063c0b3000101780011c0b3000923070049
:10b4fc00640047006c2307006400470071b6270006
:10b50c00cf22070051c0b30070b6270077fc0700ac
:10b51c002c003700d0c0b30040579800e40047001f
:10b52c0074004700b4c0b3008101780012c0b300ae
:10b53c008000780030c0b300532f07000040eb00b0
:10b54c00004f7800080037001e80fb009e80fb0037
:10b55c00e4804000eec07800e2b327000000410018
:10b56c00014878001e4fe8001e407800ea4f50005a
:10b57c00f5ff3600130037006400470061c0b300cc
:10b58c00a13107000040eb00004f780006003700a7
:10b59c001e80fb0064004000ee407800b0b3270032
:10b5ac00014878001e4fe8001e407800e54f50001f
:10b5bc00f7ff3600030037000000000001003700e1
:10b5cc000000000049d0bf000040e80049f0b7007f
:10b5dc0049d0bf00e34f5000260236004970ef00ff
:10b5ec0048d0bf000040e80048f0b7002e023700fa
:10b5fc0049d0bf000080fb00e10f50002200320058
:10b60c00e30f50002f0032000000e0004e003a0023
:10b61c001e4090000004e00048003a004e409000ac
:10b62c000080fb006f006000100798001e00900067
:10b63c00c800dd005e4090000080fb00010070003f
:10b64c00808388006e4090000080fb006f006000db
:10b65c00100798001e009000c800dd007e4090008e
:10b66c000080fb0001007000100798009e00900005
:10b67c00c05d2000808f5000320036009e0090008c
:10b68c00a18388003000370010c1b30040579800e8
:10b69c00e40047007400470063c0b3000101780068
:10b6ac0011c0b3009b2207006400470071b627004d
:10b6bc006322070051c0b30070b627000bfc0700d3
:10b6cc002100370050b32700104078006240600022
:10b6dc000004e0000e0032001cd0bf000040e80067
:10b6ec001cf0b700c10121009140780000e6280051
:10b6fc001040780080cf5000010036001c70ef0025
:10b70c0007fd0700f0c0b30049f0b7000e0037008a
:10b71c001cd0bf000040e8001cf0b700c1012100a4
:10b72c009140780010e628001040780080cf50003f
:10b73c00050036001c70ef0003003700000000000d
:10b74c00010037000000000049d0bf000040e800b5
:10b75c0049f0b70049d0bf00ea4f5000c70136008e
:10b76c004970ef0048d0bf000040e80048f0b70037
:10b77c00cd01370049d0bf000080fb000000e00085
:10b78c0003003200e10f50001f003200320037007e
:10b79c001e4090000004e0002c003a004e40900047
:10b7ac000080fb006f006000100798001e009000e6
:10b7bc00c800dd005e4090000080fb0001007000be
:10b7cc00808388006e4090000080fb006f0060005a
:10b7dc00100798001e009000c800dd007e4090000d
:10b7ec000080fb0001007000100798009e00900084
:10b7fc00c05d2000808f5000160036009e00900027
:10b80c00a18388001400370010c1b3004057980082
:10b81c00e40047007400470063c0b30001017800e6
:10b82c0011c0b3003b220700640047009e220700b2
:10b83c006400470071b627000122070051c0b30015
:10b84c0070b62700a9fb07000300370000000000ba
:10b85c00010037000000000049d0bf000040e800a4
:10b86c0049f0b70049d0bf00ea4f500085013600bf
:10b87c004970ef0048d0bf000040e80048f0b70026
:10b88c008901370049d0bf000080fb00e10f500058
:10b89c0022003200e20f5000310032000000e000c4
:10b8ac0065003a001e4090000004e0005f003a0082
:10b8bc004e4090000080fb006f0060001007980065
:10b8cc001e009000c800dd005e4090000080fb0070
:10b8dc0001007000808388006e4090000080fb00a7
:10b8ec006f006000100798001e009000c800dd007b
:10b8fc007e4090000080fb00010070001007980053
:10b90c009e009000c05d2000808f500049003600e2
:10b91c009e009000a18388004700370010c1b3003f
:10b92c0040579800e40047007400470063c0b30020
:10b93c000101780011c0b300f62107006400470034
:10b94c00592207006400470071b62700bc2107008c
:10b95c0051c0b30070b6270064fb070036003700f7
:10b96c0080c0b300405798001e4090000004e000d7
:10b97c0010003a000040eb00004f7800090037003f
:10b98c001e80fb000080e8009e80fb00e4804000ed
:10b99c00eec0780092b42700000041000148780006
:10b9ac001e4fe8001e407800e84f5000f4ff3600b0
:10b9bc00210037000040eb00004f780004003700f6
:10b9cc0090b4270011c1b300014878001e4fe80065
:10b9dc001e407800e84f5000f9ff36000ed0bf0033
:10b9ec000004a0000ef0b700e0ceb3004047980072
:10b9fc0090c0b3005047980064004700230020001b
:10ba0c000001780041ccb300b0c1b300ab16070005
:10ba1c00808080009180800061004000e0804800c0
:10ba2c0080808800918088000300370000000000af
:10ba3c00010037000000000049d0bf000040e800c2
:10ba4c0049f0b70049d0bf00e34f50000f0136005a
:10ba5c004970ef0048d0bf000040e80048f0b70044
:10ba6c001101370049d0bf000080fb00e10f5000ee
:10ba7c0022003200e20f5000310032000000e000e2
:10ba8c0034003a001e4090000004e0002e003a0002
:10ba9c004e4090000080fb006f0060001007980083
:10baac001e009000c800dd005e4090000080fb008e
:10babc0001007000808388006e4090000080fb00c5
:10bacc006f006000100798001e009000c800dd0099
:10badc007e4090000080fb00010070001007980071
:10baec009e009000c05d2000808f50001800360032
:10bafc009e009000a18388001600370010c1b3008f
:10bb0c0040579800e40047007400470063c0b3003e
:10bb1c000101780011c0b3007e21070064004700ca
:10bb2c00e12107006400470071b62700442107009b
:10bb3c0051c0b30070b62700ecfa070005003700bf
:10bb4c000207070003003700000000000100370067
:10bb5c000000000049d0bf000040e80049f0b700e9
:10bb6c0049d0bf00e34f5000ca0036004970ef00c7
:10bb7c0048d0bf000040e80048f0b700ca003700ca
:10bb8c0049d0bf000080fb00e10f500022003200c2
:10bb9c00e30f5000310032000000e00055003a0085
:10bbac001e4090000004e0004f003a004e40900010
:10bbbc000080fb006f006000100798001e009000d2
:10bbcc00c800dd005e4090000080fb0001007000aa
:10bbdc00808388006e4090000080fb006f00600046
:10bbec00100798001e009000c800dd007e409000f9
:10bbfc000080fb0001007000100798009e00900070
:10bc0c00c05d2000808f5000390036009e009000ef
:10bc1c00a18388003700370010c1b300405798004b
:10bc2c00e40047007400470063c0b30001017800d2
:10bc3c0011c0b30037210700640047009a210700a8
:10bc4c006400470071b62700fd20070051c0b30007
:10bc5c0070b62700a5fa07002600370050b327005e
:10bc6c0010407800624060000004e00009003200df
:10bc7c0050b3270010407800704060000004e000d2
:10bc8c0004003a00a6fb0700f0c0b30049f0b7006f
:10bc9c001800370050b32700104078007040600047
:10bcac000004e000130032005081800061818000ac
:10bcbc0061004000e080480050818800618188006c
:10bccc005281800063818000407384005173840032
:10bcdc00800f5100818f5900060039002a30ef0087
:10bcec002c30ef000300370000000000010037008b
:10bcfc000000000049d0bf000040e80049f0b70048
:10bd0c0049d0bf00ea4f5000640036004970ef0084
:10bd1c0048d0bf000040e80048f0b7006200370090
:10bd2c0049d0bf000080fb00e10f50002e00320014
:10bd3c00e20f50003d0032000000e0003f003a00ee
:10bd4c001e4090000004e0001b003a004e409000a2
:10bd5c000080fb006f006000100798001e00900030
:10bd6c00c800dd005e4090000080fb000100700008
:10bd7c00808388006e4090000080fb006f006000a4
:10bd8c00100798001e009000c800dd007e40900057
:10bd9c000080fb0001007000100798009e009000ce
:10bdac00c05d2000808f5000230036009e00900064
:10bdbc00a183880021003700409c200080838800ec
:10bdcc000ed0bf000024a0000ef0b70080808000d1
:10bddc009180800061004000e080480080808800f5
:10bdec00918088001500370010c1b30040579800af
:10bdfc00e40047007400470063c0b3000101780001
:10be0c0011c0b300c32007006400470026210700bf
:10be1c006400470071b627008920070051c0b300a9
:10be2c0070b6270031fa07000400370066000700df
:10be3c000e70ef00010037000000000049d0bf0079
:10be4c000040e80049f0b70049d0bf00e24f500075
:10be5c00140036004970ef004870ef0012003700f4
:10be6c004870ef00000000000f00370000000000d9
:10be7c000d003700000000000b0037000000000030
:10be8c000900370000000000070037000000000028
:10be9c000500370000000000030037000000000020
:10beac0001003700000000000080fa0000000600ce
:10bebc000e00fa00618280005082800000805000e9
:10becc00813e2000010f4000203f20009e007800a2
:10bedc00808f500004003600803e20001e00500071
:10beec007082880007003700d03d20009e0078004b
:10befc00808f500003003e00803e20001e0050004a
:10bf0c008082880052d0bf00e14f50002c003a00d4
:10bf1c0020cab30020479800508280004800de0001
:10bf2c000040780030479800508280000040780034
:10bf3c0040479800608280004800de000040780096
:10bf4c00504798006082800000407800604798005d
:10bf5c001e0078004800de00004078007047980012
:10bf6c001e00780000407800004f9800708280001e
:10bf7c004800de0000407800104f9800708280006e
:10bf8c0000407800204f9800808280004800de003e
:10bf9c0000407800304f980080828000004078008c
:10bfac00404f98000e80e800b3002000000178009c
:10bfbc0041ccb300b0c1b300401507005270ef0084
:10bfcc000080fa00000006002200fa00e2004700a0
:10bfdc00070009008018eb00f20047000700090079
:10bfec008018eb0040b327009040780000c8b300e5
:10bffc0000c060000004e0004b01320039d0bf00eb
:10c00c000004e00072003a0040cab30020479800d8
:10c01c0000042100104078003047980000042100f3
:10c02c0010409000404798000004210020409000f0
:10c03c005047980000042100304090006047980061
:10c04c00000421004040900070479800000421003b
:10c05c0050409000004f98000004210030009000e8
:10c06c004800de0000407800104f980000042100ca
:10c07c003000900000407800204f980070b62700e8
:10c08c0010407800304f980080b6270010407800a0
:10c09c00404f980090b6270010407800504f980001
:10c0ac00a0b6270010407800604f9800b0b627006b
:10c0bc0010407800704f98000e80e8000001eb00f3
:10c0cc00e1c0b300c02d0700000f78001e007800ff
:10c0dc004800de0000407800005798001e007800f1
:10c0ec000040780010579800908380004800de00d4
:10c0fc000040780020579800908380000040780022
:10c10c0030579800e0b32700104078004057980053
:10c11c00f0b327001040780050579800f082800050
:10c12c004800de000040780060579800f0828000e4
:10c13c0000407800705798000040eb00005f9800ba
:10c14c000040eb00105f9800a08380004800de00e8
:10c15c0000407800205f9800a083800000407800a9
:10c16c00305f9800808380004800de00004078003b
:10c17c00405f98008083800000407800505f9800fa
:10c18c00008380004800de0000407800605f98006b
:10c19c000083800000407800705f980072004700b8
:10c1ac000001eb00e1c0b300872d0700000f780001
:10c1bc001e0078004800de00004078000067980000
:10c1cc001e0078000040780010679800c900370006
:10c1dc0030cab300204798000004210030009000c2
:10c1ec004800de0000407800304798000004210031
:10c1fc0030009000004078004047980000b42700c1
:10c20c00104078005047980010b427001040780078
:10c21c006047980020b427001040780080407800d8
:10c22c0000cfb30080c0600030b42700104078000d
:10c23c000080fb004400de000040780000c070006d
:10c24c007047980030b42700104078000080fb0045
:10c25c004400dd008040780040b427001040780096
:10c26c000080fb004400de000040780000c070003d
:10c27c00004f980040b42700104078000080fb006d
:10c28c004400dd008040780050b427001040780056
:10c29c000080fb004400de000040780000c070000d
:10c2ac00104f980060b4270010407800204f980081
:10c2bc0070b4270010407800304f980080b42700ed
:10c2cc00104078008040780000cfb30080c0600040
:10c2dc00b0b42700104078000080fb004400de0062
:10c2ec000040780000c07000404f9800b0b42700a8
:10c2fc00104078000080fb004400dd008040780096
:10c30c00c0b42700104078000080fb004400de0021
:10c31c000040780000c07000504f9800c0b4270057
:10c32c00104078000080fb004400dd008040780065
:10c33c00d0b42700104078000080fb004400de00e1
:10c34c000040780000c07000604f9800e0b42700f7
:10c35c0010407800704f98000e80e8000001eb0050
:10c36c00e1c0b300182d0700000f78001e00780004
:10c37c004800de0000407800005798001e0078004e
:10c38c000040780010579800f0b427001040780057
:10c39c002057980000b527001040780080407800a6
:10c3ac0000cfb30080c060008283800000f02000ca
:10c3bc00000061004880de000040780000c0700082
:10c3cc0030579800808380000040780040579800d8
:10c3dc0070b62700104078005057980080b62700a0
:10c3ec00104078006057980090b6270010407800f5
:10c3fc0070579800a0b6270010407800005f980096
:10c40c00b0b62700104078008040780000cfb30011
:10c41c0080c0600010b52700104078000080fb0041
:10c42c004400de000040780000c07000105f9800ef
:10c43c0010b52700104078000080fb004400dd00a0
:10c44c008040780020b52700104078000080fb0069
:10c45c004400de000040780000c07000205f9800af
:10c46c0020b52700104078000080fb004400dd0060
:10c47c008040780030b52700104078000080fb0029
:10c48c004400de000040780000c07000305f98006f
:10c49c00a08380004800de0000407800405f9800d8
:10c4ac00a083800000407800505f9800b0b3270054
:10c4bc0010407800605f9800c0b3270010407800ef
:10c4cc00705f9800720047000001eb00e1c0b30000
:10c4dc00bd2c0700000f78001e0078004800de001d
:10c4ec0000407800006798001e007800004078003b
:10c4fc001067980039d0bf000040e80039f0b70051
:10c50c009103210091407800c0c7b30080cf500048
:10c51c00010036003970ef00f20047000e80e80091
:10c52c00a30107008b01370050b32700104078009f
:10c53c00614060000004e0008601320039d0bf0089
:10c54c000004e0008c003a0010ccb30020479800a7
:10c55c0000042100104078003047980000042100ae
:10c56c0010409000404798000004210020409000ab
:10c57c00504798000004210030409000604798001c
:10c58c0000042100404090007047980000042100f6
:10c59c0050409000004f98000004210030009000a3
:10c5ac004800de0000407800104f98000004210085
:10c5bc003000900000407800204f980070b62700a3
:10c5cc0010407800304f980080b62700104078005b
:10c5dc00404f980090b6270010407800504f9800bc
:10c5ec00a0b6270010407800604f9800b0b6270026
:10c5fc0010407800704f98000e80e8000001eb00ae
:10c60c00e1c0b300702c0700000f78001e0078000a
:10c61c004800de0000407800005798001e007800ab
:10c62c000040780010579800e0b3270010407800c5
:10c63c000080fb004400dd0080407800f0b3270050
:10c64c00104078000080fb004400de0000407800c1
:10c65c0000c0700020579800e0b32700104078000d
:10c66c000080fb004400dd008040780090b427007f
:10c67c00104078000080fb004400de000040780091
:10c68c0000c0700030579800a0b42700104078000c
:10c69c004057980070b3270010407800505798000e
:10c6ac0080b32700104078006057980090b32700a3
:10c6bc001040780070579800a0b327001040780005
:10c6cc00005f9800b0b3270010407800105f98000e
:10c6dc00c0b3270010407800205f98008083800052
:10c6ec004800de0000407800305f980080838000b6
:10c6fc0000407800405f9800f182800000ff20002d
:10c70c00008060004400de0000407800505f98001c
:10c71c00f082800000407800c400dd0002838000bd
:10c72c0000f02000000061004800de0000407800ae
:10c73c0000c07000605f98000083800000407800ab
:10c74c00705f9800720047000001eb00e1c0b3007d
:10c75c001d2c0700000f78001e0078004800de003a
:10c76c0000407800006798001e00780000407800b8
:10c77c0010679800ed00370020cdb30020479800db
:10c78c0000042100b000900000ff20000080600039
:10c79c004400de000040780030479800000421007f
:10c7ac003000900000407800c400dd0000b4270089
:10c7bc00104078000080fb004400de000040780050
:10c7cc0000c070004047980000b42700104078006b
:10c7dc000080fb004400dd008040780010b427008e
:10c7ec00104078000080fb004400de000040780020
:10c7fc0000c070005047980010b42700104078001b
:10c80c000080fb004400dd008040780020b427004d
:10c81c00104078000080fb004400de0000407800ef
:10c82c0000c070006047980030b4270010407800ba
:10c83c007047980040b4270010407800004f9800d3
:10c84c0050b42700104078008040780000cfb3002f
:10c85c0080c0600060b42700104078000080fb00ae
:10c86c004400de000040780000c07000104f9800bb
:10c87c0060b42700104078000080fb004400dd000d
:10c88c008040780070b42700104078000080fb00d6
:10c89c004400de000040780000c07000204f98007b
:10c8ac0070b42700104078008040780000cfb300af
:10c8bc0080c0600080b42700104078000080fb002e
:10c8cc004400de000040780000c07000304f98003b
:10c8dc00b0b4270010407800404f9800c0b4270037
:10c8ec0010407800504f9800d0b4270010407800ca
:10c8fc008040780000cfb30080c06000e0b4270017
:10c90c00104078000080fb004400de0000407800fe
:10c91c0000c07000604f9800e0b427001040780011
:10c92c000080fb004400dd0080407800f0b427005c
:10c93c00104078000080fb004400de0000407800ce
:10c94c0000c07000704f98000e80e8000001eb00f2
:10c95c00e1c0b3009c2b0700000f78001e0078008c
:10c96c004800de0000407800005798001e00780058
:10c97c000040780010579800f0b427001040780061
:10c98c000080fb004400dd0080407800d0b427001c
:10c99c00104078000080fb004400de00004078006e
:10c9ac0000c070002057980010b527001040780088
:10c9bc003057980020b52700104078004057980059
:10c9cc0030b52700104078008040780000cfb300cd
:10c9dc0080c0600070b62700104078000080fb001b
:10c9ec004400de000040780000c0700050579800f2
:10c9fc0070b62700104078000080fb004400dd007a
:10ca0c008040780080b62700104078000080fb0042
:10ca1c004400de000040780000c0700060579800b1
:10ca2c0080b62700104078000080fb004400dd0039
:10ca3c008040780090b62700104078000080fb0002
:10ca4c004400de000040780000c070007057980071
:10ca5c0090b62700104078000080fb004400dd00f9
:10ca6c0080407800a0b62700104078000080fb00c2
:10ca7c004400de000040780000c07000005f9800a9
:10ca8c00a0b62700104078000080fb004400dd00b9
:10ca9c0080407800b0b62700104078000080fb0082
:10caac004400de000040780000c07000105f980069
:10cabc00808380004800de0000407800205f9800f2
:10cacc008083800000407800305f980070b32700ae
:10cadc0010407800405f980080b327001040780029
:10caec00505f980090b3270010407800605f98006a
:10cafc00a0b3270010407800705f980072004700c8
:10cb0c000001eb00e1c0b3002f2b0700000f7800f1
:10cb1c001e0078004800de00004078000067980096
:10cb2c001e007800004078001067980039d0bf00d4
:10cb3c000040e80039f0b70039d0bf00e74f4000a3
:10cb4c00010036003970ef00f20047000e80e8005b
:10cb5c00170007000080fa00000006000200fa002f
:10cb6c00004f7800114798000080fa000000060082
:10cb7c000000fa00a570ef00a670ef00a770ef00a0
:10cb8c00a870ef00a210a800a230a800a250a90023
:10cb9c00a2b0a900a2d0a900a270a900a290a900dd
:10cbac00a2f0a900a370ef000080fa0000000600bc
:10cbbc002600fa0010179800211798000040eb008f
:10cbcc00104798000040eb00004f78000c00370035
:10cbdc001e4090000080fb009e80fb001e11900008
:10cbec0081004100914078000080e80001777800d6
:10cbfc001e4090000040e800104798001e4fe800cf
:10cc0c001e407800ef4f5000f1ff36000040eb0063
:10cc1c00004f78000c0037001e4090000080fb0095
:10cc2c009e80fb002e119000810041009140780005
:10cc3c000080e800017778001e4090000040e8007a
:10cc4c00104798001e4fe8001e407800ef4f500030
:10cc5c00f1ff36008184800000002200008060001b
:10cc6c000000e00002003200b6d0bf000e13070037
:10cc7c00b6d0bf008e80e80002c2b3006a13070072
:10cc8c000080fa00000006000000fa000080fa00a4
:10cc9c00000006001800fa00405798005157980001
:10ccac00320f9800ce5090004147980000042100ac
:10ccbc00104078005047980000042100104090006c
:10cccc0060479800000421002040900070479800b5
:10ccdc000004210030409000004f98000004210017
:10ccec0040409000104f98000004210050409000ec
:10ccfc00204f980000042100300090004800de0016
:10cd0c0000407800304f9800000421003000900063
:10cd1c0000407800404f9800de509000514f980032
:10cd2c003e08900010407800604f98003e0890003c
:10cd3c000000e80010407800704f98003e0890000a
:10cd4c000080e80010407800005798003e089000e2
:10cd5c0063004000104078001057980064004700b2
:10cd6c000001eb00e1c0b300972a07001007980000
:10cd7c000040eb00004f78000a003700508580001f
:10cd8c009e80fb00e48040006ec17800410c2700bf
:10cd9c0081004000824878000000e800508588003f
:10cdac001e4fe8001e407800ed4f5000f3ff360098
:10cdbc00508580009e009000c808de00014178007c
:10cdcc00410c270081004000824878000000e800f8
:10cddc0050858800508580009e00900001417800ad
:10cdec00410c270081004000824878000000e800d8
:10cdfc00508588005185800000748400808f50001d
:10ce0c0001003900aa30ef00a9d0bf000040e800b3
:10ce1c00a9f0b7000080fa00000006001600fa0026
:10ce2c004057980051579800ce50900041479800b9
:10ce3c0000042100104078005047980000042100a5
:10ce4c0010409000604798000004210020409000a2
:10ce5c00704798000004210030409000004f98006b
:10ce6c000004210040409000104f98000004210065
:10ce7c0050409000204f980000042100300090009a
:10ce8c004800de0000407800304f9800000421007c
:10ce9c003000900000407800404f9800de50900029
:10ceac00514f98000040eb00604f98000040eb00a1
:10cebc00704f98000040eb00005798000040eb00ca
:10cecc0010579800640047000001eb00e1c0b3006c
:10cedc003d2a0700100798000040eb00004f780037
:10ceec000a003700508580009e80fb00e4804000e3
:10cefc006ec17800410c2700810040008248780008
:10cf0c000000e800508588001e4fe8001e407800a5
:10cf1c00ed4f5000f3ff3600508580009e009000ce
:10cf2c00c808de0001417800410c27008100400058
:10cf3c00824878000000e800508588005085800009
:10cf4c009e00900001417800410c270081004000b8
:10cf5c00824878000000e80050858800a9d0bf0006
:10cf6c000040e800a9f0b7005185800000748400ef
:10cf7c00808f500001003900aa30ef000080fa00c9
:10cf8c00000006001600fa0040579800910a210094
:10cf9c0091407800214798000040eb00004f78004a
:10cfac00330037002e4090000004e00035003200c2
:10cfbc000040eb00104798000d0037001e40900019
:10cfcc008080fb0060858000420c2700020140003d
:10cfdc0012417800e380400002f778000000e8007e
:10cfec00608588001e4090000040e80010479800c3
:10cffc001e409000ef4f5000f0ff3600618580001e
:10d00c0000748400808f500001003900ac30ef00b8
:10d01c00708580007000400070858800a9d0bf002a
:10d02c000040e900a9f0b7007185800020748400ed
:10d03c00808f50000d003900bbd0bf000040e800cd
:10d04c00bbf0b700b10b21009140780060e82800dc
:10d05c001040780080cf50000400360010c0b300a0
:10d06c00bbf0b700ae30ef00070037001e4fe800f2
:10d07c004e5090009e40780080cf5000c9ff390080
:10d08c0001003700000000000080fa0000000600dc
:10d09c000800fa000000eb00000f7800e4004700e5
:10d0ac00000009008018eb008058eb0060b32700eb
:10d0bc0010407800614060000004e000b7003a00c6
:10d0cc003ad0bf00f04f5000b4003a00b0d9830002
:10d0dc000010a000b0d98b000040eb002047980056
:10d0ec000a0037002e4090000080fb0041b1270061
:10d0fc0000804000104078000080fb001e0f4000b4
:10d10c002e4090000040e800204798002e409000f0
:10d11c00ee4f5000f3ff36001e00780030479800a9
:10d12c0030b22700904078003e40900080cf5000f5
:10d13c0011003200e0ceb30040479800a0cab30003
:10d14c005047980010ceb300604798006400470029
:10d15c00330020000001780041ccb300b0c1b30013
:10d16c00d6100700b0d983000010a100b0d98b00f5
:10d17c00c62007008c00370040b127001040780013
:10d18c00f74f500011003200e0ceb300404798003a
:10d19c00a0cab3005047980020ceb3006047980057
:10d1ac0064004700330020000001780041ccb3003c
:10d1bc00b0c1b300c1100700b0d983000010a100aa
:10d1cc00b0d98b00b12007007700370050b1270091
:10d1dc0010407800f04f500011003200e0ceb30048
:10d1ec0040479800a0cab3005047980030ceb30017
:10d1fc00604798006400470033002000000178006d
:10d20c0041ccb300b0c1b300ac100700b0d983005f
:10d21c000010a100b0d98b009c20070062003700e1
:10d22c0060b1270010407800f04f50001100320020
:10d23c00e0ceb30040479800a0cab3005047980016
:10d24c0040ceb300604798006400470033002000d4
:10d25c000001780041ccb300b0c1b30097100700b7
:10d26c00b0d983000010a100b0d98b008720070033
:10d27c004d00370070b1270010407800f34f50007c
:10d28c0011003200e0ceb30040479800a0cab300b2
:10d29c005047980050ceb300604798006400470098
:10d2ac00330020000001780041ccb300b0c1b300c2
:10d2bc0082100700b0d983000010a100b0d98b00f8
:10d2cc00722007003800370020b227001040780089
:10d2dc00f74f500011003200e0ceb30040479800e9
:10d2ec00a0cab3005047980060ceb30060479800c6
:10d2fc0064004700330020000001780041ccb300eb
:10d30c00b0c1b3006d100700b0d983000010a100ac
:10d31c00b0d98b005d2007002300370080b12700b7
:10d32c0090407800000421000148780090b127005b
:10d33c00904078000004210011409800a0b1270013
:10d34c00904078000004210021409800b0b12700e3
:10d35c00904078000004210031409800c0b12700b3
:10d36c00904078000004210041409800d0b1270083
:10d37c0090407800000421005140980000042100e6
:10d38c008000eb0031009800b0d983000000a000b1
:10d39c00b0d98b003d2007003970ef00b0d9830065
